:020000040800F2
:100000004808002055020008FB270008F9210008D5
:10001000F9270008A1070008CD2C00080000000007
:10002000000000000000000000000000FF270008A2
:10003000A307000800000000FD27000801280008B1
:100040006F0200086F0200086F0200086F020008CC
:100050006F0200086F0200086F0200086F020008BC
:100060006F0200086F0200086F0200086F020008AC
:100070006F0200086F0200086F0200086F0200089C
:100080006F0200086F0200086F0200086F0200088C
:100090006F0200086F0200086F0200086F0200087C
:1000A0006F020008A92800086F0200086F0200080C
:1000B0006F0200086F0200086F0200086F0200085C
:1000C0006F0200086F0200086F0200086F0200084C
:1000D0006F0200086F020008C12C00086F020008C0
:1000E0006F0200086F0200086F0200086F0200082C
:1000F0006F0200086F0200086F0200086F0200081C
:100100006F0200086F0200086F0200086F0200080B
:100110006F0200086F0200086F0200086F020008FB
:100120006F0200086F0200086F0200086F020008EB
:100130006F0200086F0200086F0200086F020008DB
:100140006F0200086F0200086F0200086F020008CB
:100150006F0200086F0200086F0200086F020008BB
:100160006F0200086F0200086F0200086F020008AB
:100170006F0200086F0200086F0200080000000014
:100180006F0200086F0200086F0200086F0200088B
:100190006F0200086F0200086F0200086F0200087B
:1001A0006F0200086F0200086F02000800F002F8FA
:1001B00000F040F80AA090E8000C82448344AAF1C1
:1001C0000107DA4501D100F035F8AFF2090EBAE8BF
:1001D0000F0013F0010F18BFFB1A43F0010318477B
:1001E000B83A0000D83A0000103A24BF78C878C165
:1001F000FAD8520724BF30C830C144BF04680C602D
:10020000704700000023002400250026103A28BF74
:1002100078C1FBD8520728BF30C148BF0B60704778
:100220001FB503F022FD9DE8030000F01FF91FBD7C
:1002300010B510BD00F09EF91146FFF7F1FF03F075
:10024000C5F900F0BCF903B4FFF7F2FF03BC00F0FE
:10025000EDF900000948804709480047FEE7FEE73E
:10026000FEE7FEE7FEE7FEE7FEE7FEE7FEE7FEE766
:1002700004480549054A064B7047000099280008C4
:10028000AD01000848020020480800204804002072
:100290004804002070B5064600F0CCF8056806F169
:1002A0000B0020F00704B4429CBF002070BD2B4619
:1002B0006A68BAB11068A04210D304F108018842FC
:1002C0003CBF5068586007D35168101941601168ED
:1002D000091B016058601460101D70BD1346526800
:1002E000002AE7D12146284600F0ACF80028DED1EC
:1002F00070BD53EA020C00F069802DE9F04B4FF01D
:100300000006002B1FBFB3FA83F503FA05F424FAA5
:1003100005F65E4012BF1643B2FA82F502FA05F402
:10032000C5F120051EBF22FA05FC44EA0C04203565
:1003300056EA044C4FEA144418BF641C4FF00008FE
:100340004FF00009904271EB030C39D3002919BF1B
:10035000B1FA81F701FA07F6B0FA80F700FA07F66A
:10036000C7F120071EBF20FA07FC46EA0C0620371B
:10037000B6FBF4FCA7EB0507103F07F01F0BCBF112
:1003800020060CFA0BFB2CFA06F644BFB3460026F7
:10039000202FA4BF5E464FF0000B5BEA060C08BF9F
:1003A0004FF0010B19EB0B09ABFB027C48EB060885
:1003B000C01B06FB02CC0BFB03CC71EB0C01C1E7AD
:1003C0000B46024641464846BDE8F08B13B54FF058
:1003D00000004FF00001AFF30080BDE81C40704703
:1003E0004FF0000200B5134694469646203922BFCE
:1003F000A0E80C50A0E80C50B1F12001BFF4F7AF19
:10040000090728BFA0E80C5048BF0CC05DF804EBFA
:10041000890028BF40F8042B08BF704748BF20F868
:10042000022B11F0804F18BF00F8012B7047704766
:100430007047704700487047F001002070477047D0
:100440007047704738B504460A4600206946AFF346
:100450000080002808BF38BD02460099204600F001
:1004600067F8012038BD012000F07CB8F8B5AFF383
:100470000080054600200C46102000BF0646A81943
:10048000A0420DD9324669460020AFF30080070034
:1004900008BF00F067F80098A04218BF0546C419CD
:1004A000FFF7C8FF05600746F01D20F0070046195A
:1004B000284600F00AF8B44208BFF8BDA21B314636
:1004C0003868BDE8F84000F033B800210160C0E9A9
:1004D000011070471020704770B50446051FFFF7E4
:1004E000A9FF0068002C14BF446870BD002C18BF21
:1004F000AC423CBF20466468F8D301680A18AA429F
:1005000018BF456003D12A68054611440160286878
:100510004119A1421CBF6C6070BD616869602168AF
:100520000844286070BD000000487047E8010020C2
:10053000034640688C46002818BF88423CBF0346EB
:100540004068F8D318681844884207D00CF10300BB
:1005500020F00700001D411A521A0146081D0A60CA
:10056000FFF7BABF10B500F039F8BDE8104000F051
:100570002FB870477546FFF7D7FFAE4605006946AE
:10058000534620F00700854618B020B5FFF770FEEF
:10059000BDE820404FF000064FF000074FF0000884
:1005A0004FF0000B21F00701AC46ACE8C009ACE805
:1005B000C009ACE8C009ACE8C0098D46704710B569
:1005C0000446AFF300802046BDE81040FFF73BBE75
:1005D000002801D000F02AB87047000010B50128AB
:1005E00005D0002103A000F027F8012010BD09A1CB
:1005F000F8E7000053494752544D454D3A204F7596
:1006000074206F662068656170206D656D6F72790A
:10061000000000003A2048656170206D656D6F72C2
:100620007920636F727275707465640001491820D7
:10063000ABBEFEE72600020070B505460C460A2058
:1006400000E06D1C00F011F835B128780028F8D1D1
:1006500002E0641C00F009F814B120780028F8D1F9
:10066000BDE870400A20AFF3008008B569468DF8F8
:1006700000000320ABBE08BD464910B54A6822F40D
:1006800040324A604A6843681A434A6001684A68CF
:1006900022F480724A6001684A68036942EA0322D0
:1006A0004A6001684A6822F040724A6001684A68FC
:1006B00083681A434A6001688A6822F400628A608B
:1006C00001688A68C3681A438A60816A6FF0706241
:1006D000D14201688A6822F070628A6001688A6883
:1006E0000CD0836A1A438A6001688A6822F04052FB
:1006F0008A6001688A68C36A1A4301E022F04052A6
:100700008A6001688A6822F002028A6001688A6849
:10071000037E42EA43028A6090F8201000290168B3
:100720004A680FD042F400624A6001684A6822F4C5
:1007300060424A6001684A68174C436A04EB4333DD
:100740001A4301E022F400624A600168CA6A22F496
:100750007002CA620168CA6A838B104C04EB0353AF
:100760001A43CA6201688A6822F400728A600168CA
:100770008A6890F8303042EA43228A6001688A68C9
:1007800022F480628A6001688A68406942EA8020B7
:10079000886010BD0023014000E0FFFF0000F0FF73
:1007A000FEE7704778B50024009490F83C20012AB9
:1007B00019D0012280F83C200A6807230568092A1D
:1007C00013D9EE680A3A02EB420293409E43EE6070
:1007D0000B788A680A3B03EB43039A400368DD68A1
:1007E0002A43DA6010E0022078BD2E6902EB420253
:1007F00093409E432E610B788A6803EB43039A4033
:1008000003681D692A431A614A681F23072A13D205
:1008100005686E6B521E02EB820293409E436E632C
:100820000A8893B20A79521E02EB82029340026850
:10083000556B2B43536327E005680D2A12D22E6BAC
:10084000D21F02EB820293409E432E630B790A88EB
:10085000DB1F92B203EB83039A4003681D6B2A43AC
:100860001A6311E0EE6A0D3A02EB820293409E4356
:10087000EE620B790A880D3B92B203EB83039A4038
:100880000368DD6A2A43DA621B4B0568194A9D42F8
:100890000AD10D68122D07D1556825F40005556061
:1008A000556845F48005556005689D421DD1134D7E
:1008B0000B68AB4201D0112B17D1536823F480038E
:1008C0005360536843F4000353600968A9420CD194
:1008D0000B490C4A0968B1FBF2F101EB81014900B7
:1008E00000E0491E00910029FBD180F83C40002027
:1008F00078BD0000002301400020014012000010DC
:100900001C00002040420F000068C06C704770B5AA
:1009100004004FF0000503D0206C002610B107E062
:10092000012070BD204600F01DF8666484F83C602C
:10093000206CC00610D4206C20F4885040F00200D7
:1009400020642046FFF798FE6664206C20F00200C9
:1009500040F00100206400E0012584F83C60284656
:1009600070BD000070B586B0044614216846FFF7DC
:1009700037FD1D491B4E256800231B4A14390324EB
:100980001A48B54211D1156845F480751560126892
:1009900002F4807205920A6842F001020A60096856
:1009A00001F001010591012113E0114EB54216D16C
:1009B000156845F400751560126802F4007205921E
:1009C0000A6842F001020A60096801F0010105911C
:1009D0000821CDE900140293694600F06BF906B0D6
:1009E00070BD000000200140443802400000024079
:1009F000002101402DE9F041044600680D46816860
:100A00004FF0000749050BD58068C00508D5206C5C
:100A100040F02000206484F83C700120BDE8F081A3
:100A200000F074FA064613E0681C11D025B100F0FE
:100A30006DFA801BA8420BD920680068800707D494
:100A4000206C40F00400206484F83C700320E5E74B
:100A5000206800688007E7D521686FF01200086001
:100A6000206C40F4007020642068816811F0405FC1
:100A700013D1217E89B9C16A11F4700F02D0806848
:100A800040050AD4206C20F480702064206CC004DF
:100A900003D4206C40F0010020640020BEE7000079
:100AA00018B50021009190F83C20012A07D00122BE
:100AB00080F83C2002689368DB0702D011E0022036
:100AC00018BD936843F0010393602E4A2E4B1268C1
:100AD000B2FBF3F202EB420200E0521E0092002A47
:100AE000FBD102689368DB0742D0036C40F20164DB
:100AF000A34343F48073036453685B0505D5036C1B
:100B000023F4005343F480530364036CDB0404D5E3
:100B1000436C23F00603436400E0416480F83C101A
:100B20001A496FF02203136049680068CA06184921
:100B300006D0884224D1816811F0405F13D01FE0B5
:100B40008842F8D0134A904203D1D1F80423D20648
:100B5000F1D0114A904213D1D1F8041301F01F01D2
:100B60001029E8D30CE0816841F08041816007E002
:100B7000016C41F010010164416C41F001014164DC
:100B8000002018BD1C00002040420F00002301403F
:100B900000200140002101400022014090F83C105B
:100BA00001290CD0012180F83C1001688A6822F0EC
:100BB00001028A6001688968C90702D007E0022043
:100BC0007047016C21F4885141F00101016400215A
:100BD00080F83C10084670472DE9F0410446876DC7
:100BE00000F094F9064694F835000025022806D056
:100BF0008020606584F834500120BDE8F0812068D1
:100C0000016821F0160101602068416921F080012E
:100C10004161206C08B9A06C20B12068016821F006
:100C2000080101602068016821F0010101600CE009
:100C300000F06CF9801B052807D92020606503208F
:100C400084F8350084F83450D7E720680068C0077E
:100C5000EED194F85C103F208840B860012084F801
:100C6000350084F834500020C7E790F83510022989
:100C700003D08021416501207047052180F835109F
:100C80000068016821F00101016000207047000048
:100C900070B5044600F03AF90546601C02D00448DD
:100CA0000078044400F032F9401BA042FAD370BD32
:100CB000100000202DE9F84FDFF8F8A100220124F0
:100CC0000AF1040B03254FF00F090BF1040E00BFCE
:100CD0000B6804FA02F63340B34270D10F7907F083
:100CE0000307012F01D0022F16D187684FEA42086F
:100CF00005FA08FC27EA0C07D1F80CC00CFA08FC2E
:100D00004CEA070CC0F808C04768B7430E79C6F331
:100D1000001696403E4346600E79F643B6070AD069
:100D2000C7684FEA420C05FA0CF6B7438E6806FA1C
:100D30000CF63E43C6600E7906F00306022E10D173
:100D4000D60800EB8608D8F8206057074FEAD76C22
:100D500009FA0CF7BE430F6907FA0CF73743C8F8D6
:100D6000207006684FEA420C05FA0CF7BE430F7973
:100D700007F0030707FA0CF7374307604E6816F4CD
:100D8000403F1CD04C4E376847F480473760366888
:100D900022F0030706F480460096484E07EB060C47
:100DA000DCF8086897073F0F09FA07F826EA0806F3
:100DB000DFF80C81404503D14FF0000841E072E0BC
:100DC000DFF80081404502D14FF0010839E0DFF83B
:100DD000F880404502D14FF0020832E0DFF8EC80A5
:100DE000404502D14FF003082BE0DFF8E480404596
:100DF00002D14FF0040824E0DFF8D880404502D14A
:100E00004FF005081DE0DFF8D080404502D14FF0DB
:100E1000060816E0DFF8C480404502D14FF007080D
:100E20000FE0DFF8BC80404502D14FF0080808E031
:100E3000DFF8B080404502D14FF0090801E04FF0E3
:100E40000A0808FA07F848EA0608CCF80888DAF829
:100E500000605746D1F804C09E435FEACC3C00D501
:100E60001E433E60DBF800605F46D1F804C09E433D
:100E70005FEA8C3C00D51E433E60DEF8006077469A
:100E8000D1F804C09E435FEACC2C00D51E433E60DF
:100E9000084F0C373E68D1F804C09E435FEA8C2CA3
:100EA00000D51E433E60521C102AFFF411AFBDE86E
:100EB000F88F0000003C01404438024000300140FF
:100EC000000002400004024000080240000C024002
:100ED000001002400014024000180240001C0240B2
:100EE00000200240002402400069084000D0012098
:100EF0007047426921EA02030A4043EA02418161E4
:100F000070470AB1816170470904FBE701488068B6
:100F1000704700001000002090F83D20202A01D0EA
:100F200002207047242280F83D200268136823F0D5
:100F3000010313600268536A23F0100353620268CE
:100F4000536A0B43536201680A6842F001020A6067
:100F5000202180F83D100020704790F83D20202A85
:100F600001D002207047242280F83D2002681368D7
:100F700023F00103136003685A6A22F00F020A4348
:100F800091B2596201680A6842F001020A602021A8
:100F900080F83D100020704770B5040025D094F80B
:100FA0003D00002520B984F83C50204600F04EF961
:100FB000242084F83D002068016821F001010160CF
:100FC0002068016841F4004101602068016821F453
:100FD0000041016000F0A2FA4D4A6168914201D8D7
:100FE0004C4900E04C49884201D2012070BD4B4978
:100FF0002368B0FBF1F15E6826F03F060E435E60A9
:101000006368934206D94FF4967359434FF47A7349
:10101000B1FBF3F12368491C1E6A26F03F063143F9
:1010200019626168914210D84900401EB0FBF1F28C
:10103000521CC2F30B02042A01D2042022E0B0FBAE
:10104000F1F0401CC0F30B001CE0A268F2B301EB0E
:10105000C10303EB0116431EB3FBF6F35B1C43F421
:1010600080431B0549D092B301EBC10202EB011191
:10107000401EB0FBF1F0401CC0F30B0040F4804078
:1010800040F400402168CA694CF6FF739A4310434C
:10109000C861D4E9071001432068026822F0C00249
:1010A00011430160D4E9030101432068826848F2DA
:1010B000FF339A4311438160D4E905010843216855
:1010C000CA6822F0FF021043C86001E00EE016E09B
:1010D0002068016841F0010101602564202084F846
:1010E0003D00256384F83E50002070BD01EB4106B1
:1010F000431EB3FBF6F35B1CB3E70120C2E701EB31
:101100004101401EB0FBF1F0401CC0F30B00B7E7FB
:10111000A086010080841E0000093D0040420F00AF
:101120002DE9F84F1F4690468A460446DDF8289080
:10113000FFF7ECFE054694F83D0020287FD11923E7
:10114000012240492046009501F0E2F8002876D1BE
:1011500094F83C00012872D0012084F83C002068FB
:101160000168C90703D1016841F0010101602068ED
:10117000016821F400610160212084F83D00102005
:1011800084F83E0000262664C4F824806785608DBC
:1011900020852D48E0622B464A465146204601F004
:1011A00043F890B9206841698069009036E02A468A
:1011B0004946204601F02BF950B1206C042804D197
:1011C0002068016841F4007101600120BDE8F88FDA
:1011D000606A216800780861606A401C6062618D05
:1011E000491E6185218D491E89B221852268536976
:1011F000DB435B070BD451B100781061606A401C7F
:101200006062608D401E6085208D401E20852A46CC
:101210004946204601F056F80028CED1208D0028FE
:10122000C5D154F83D0B016841F4007101602020E4
:1012300004F81E09E67766770020C7E7FFE702207B
:10124000C4E70000020010000000FFFF10B586B0E8
:10125000044614216846FFF7C3F813492068884202
:101260001FD112480021026842F02002026000688B
:10127000122200F0200005900320CDE90210CDE9F4
:1012800000020420049069460948FFF713FD07484F
:101290001030016841F480010160006800F48000B2
:1012A000059006B010BD00000058004030380240E4
:1012B000001402400248816802781144816070473E
:1012C000100000200B4810B5016841F40071016066
:1012D000016841F480610160016841F4807101603E
:1012E000032000F06FF8002000F006F800F024F86A
:1012F000002010BD003C024070B50D4D04464FF477
:101300007A712878B1FBF0F00A490968B1FBF0F076
:1013100000F00AFB48B9102C07D200222146501ECB
:1013200000F030F800206C6070BD012070BD00003E
:10133000100000201C0000200A4808B5016841F494
:1013400080410160006800F4804000900548001F63
:10135000016841F080510160006800F08050009009
:1013600008BD000044380240002809DB00F01F02DD
:10137000012191404009800000F1E020C0F80011F7
:1013800070470000F0B40E4B1B680C46C3F30223F9
:10139000C3F10705042D00D90425191D072901D221
:1013A000002300E0DB1E012606FA05F1491E21405C
:1013B00099409E40761E16403143F0BC01F087BC38
:1013C0000CED00E0064900F0070208684FF6FF0345
:1013D000184040EA0220034A1043086070470000AA
:1013E0000CED00E00000FA052DE9F0470E4605007F
:1013F00065D0DFF81481D8F80000F7B200F00F00D4
:10140000B04207D288F80070D8F8000000F00F0052
:10141000B04254D128683D4C810712D5400703D50E
:10142000206840F4E05020602878000703D5206849
:1014300040F4604020602068A96820F0F000084374
:1014400020602878C0072DD0304968680839012805
:1014500012D0022813D0032811D009688907002967
:101460002DDA216821F0030101432160FFF74EFDD1
:10147000814641F2883A0EE009688903EFE709687E
:101480008901ECE7FFF742FDA0EB0901514502D9C4
:101490000320BDE8F0872068696800F00C00B0EB1D
:1014A000810FEFD1D8F80010404601F00F01B14292
:1014B00007D90770006800F00F00B04201D001208A
:1014C000E7E72878400705D52068E96820F4E05070
:1014D000084320602878000706D52068296920F491
:1014E000604040EAC100206000F038F82168084AF6
:1014F000C1F30311515CC840064908600648006802
:10150000FFF7FAFE0020C4E7003C02400838024022
:101510007E3C00081C0000201400002004480549FF
:1015200000680968044AC1F38221515CC8407047D1
:101530001C000020083802408E3C00080448054981
:1015400000680968044AC1F34231515CC8407047E1
:101550001C000020083802408E3C0008154810B5D9
:10156000006810F00C02144813D04110042A0FD068
:10157000082A0ED10F4C241F2268236802F03F0274
:101580005B0207D52068C0F38810A0FB010106E0CC
:10159000084610BD2168C1F38811A1FB000100239A
:1015A000FEF7A7FE2168C1F30141491C4900B0FBC9
:1015B000F1F010BD083802400024F4002DE9F84F86
:1015C00004006ED02078DFF84C93C007A9F1040521
:1015D0004AD009F104000168C1F38101012908D052
:1015E0000068C0F3810002280AD1D9F80000400247
:1015F00006D52868800337D560680028E1D033E03D
:101600006068B0F5803F10D0B0F5A02F286810D0EA
:1016100020F480302860286820F4802028606068EA
:10162000A8B1FFF773FC06460DE0286840F480304F
:10163000F4E740F480202860F7E700BFFFF766FC7E
:10164000801B642873D828688003F7D50CE0FFF767
:101650005DFC064605E000BFFFF758FC801B6428D0
:10166000F0D828688003F7D42078DFF8AC828007B0
:101670004FF0000A3ED5A748001D016811F00C0F7D
:1016800008D00068C0F3810002280BD1D9F800000F
:10169000400207D42868800716D5E068012800D1E9
:1016A00012E033E1E068B8B10120C8F80000FFF7AC
:1016B0002DFC064605E000BFFFF728FC801B022832
:1016C000C0D828688007F7D52868216920F0F8007D
:1016D00040EAC10028600DE0C8F800A0FFF716FC42
:1016E000064604E0FFF712FC801B02281FD828687A
:1016F0008007F7D42078000722D5864F8748616994
:10170000703771B101210160FFF700FC064604E06B
:10171000FFF7FCFB801B022809D838688007F7D543
:101720000EE0C0F800A0FFF7F1FB064605E082E0FE
:10173000FFF7ECFB801B02287DD838688007F7D4C0
:101740002078400768D5DFF8CCB100270BF13C0BBF
:10175000DBF80000C0000BD4DBF8001041F0805132
:10176000CBF80010DBF80000012700F0805000905B
:101770006B4E3068C00510D4306840F48070306023
:10178000FFF7C4FB009005E0FFF7C0FB0099401A8B
:10179000022850D83068C005F6D55E4EA0686C3679
:1017A00001280FD00528306810D020F001003060EB
:1017B000306820F004003060A068B8B1FFF7A6FBE5
:1017C00000900FE0306840F00100F4E740F00400C2
:1017D0003060F7E7FFF79AFB0099411A41F2883031
:1017E000814266D830688007F4D50EE0FFF78EFBA3
:1017F000009007E0FFF78AFB0099411A41F2883018
:10180000814256D830688007F4D42FB1DBF800103D
:1018100021F08051CBF80010A069C8B33D49091DE3
:101820000968C1F3810102294AD00228504607D035
:10183000C8F8600000E03CE0FFF768FB04463BE0CE
:101840004746C8F86000FFF761FB064605E000BFA9
:10185000FFF75CFB801B02282BD828688001F7D497
:10186000D4E907010843A16A2E4A490802EB014165
:10187000626A41EA8211084394F82C1040EA01613F
:10188000C9F8001001203866FFF740FB044606E067
:101890003EE000BFFFF73AFB001B022809D828688A
:1018A0008001F7D534E000BFFFF730FB001B0228B2
:1018B00002D90320BDE8F88F28688001F4D427E01E
:1018C0000128F7D0D9F80000E26900F480019142C4
:1018D0001CD1226A00F03F01914217D147F6C07136
:1018E000626A0140B1EB821F10D1A26A4FF0FF3350
:1018F00000F4403103EB5202B1EB024F06D194F8F1
:101900002C1000F07060B0EB016F01D00120D1E726
:101910000020CFE70438024000004742800E4742D3
:10192000007000400000FFFF10B5401EB0F1807F46
:1019300001D3012010BD4FF0E02460610F2160173A
:1019400001F0C5F90020A06107202061002010BD32
:101950007047704770B590F83C20012A32D00124BE
:1019600080F83C40022280F83D2003685A689D6858
:1019700022F070060A6832435A60134B02689A429A
:1019800014D0B2F1804F11D0104B9A420ED0104BB0
:101990009A420BD00F4B9A4208D00F4B9A4205D077
:1019A0000E4B9A4202D00E4B9A4204D1496825F060
:1019B00080031943916080F83D40002180F83C107D
:1019C000084670BD022070BD0000014000040040C8
:1019D00000080040000C00400004014000400140AD
:1019E0000018004010B5040003D094F83D0010B179
:1019F00007E0012010BD002084F83C00204600F0E4
:101A00001FF8022084F83D00211D206800F052FFDD
:101A1000012084F8460084F83E0084F83F0084F8F2
:101A2000400084F8410084F8420084F8430084F8C0
:101A3000440084F8450084F83D00002010BD0000FB
:101A400008B500681149884212D11148016841F077
:101A5000010101600068002200F0010000901146C1
:101A60001920FFF78FFCBDE808401920FFF77CBC68
:101A7000B0F1804F09D10648001F016841F0010113
:101A80000160006800F00100009008BD0000014006
:101A90004438024090F83D10012901D001207047E0
:101AA000022180F83D1000681149884214D0B0F13D
:101AB000804F11D00F4988420ED00F4988420BD079
:101AC0000E49884208D00E49884205D00D49884207
:101AD00002D00D49884204D1816801F0070106292E
:101AE00003D0016841F0010101600020704700004F
:101AF000000001400004004000080040000C0040CD
:101B000000040140004001400018004070B5044648
:101B100090F83C000025012817D0012684F83C608D
:101B2000022084F83D002068826822F0770222F4C7
:101B30007F4282600868502838D00DDC20284FD0C2
:101B400005DC90B3102811D14AE0022070BD302886
:101B500046D040280AD13BE060282FD070280DD015
:101B6000B0F5805F03D0B0F5005F12D0012584F896
:101B70003D60002084F83C00284670BDCB68D1E968
:101B80000121206800F0FAFE2068816841F07701A9
:101B900009E0CB68D1E90121206800F0EFFE206860
:101BA000816841F480418160E1E719E0CA684968D1
:101BB000206800F0F5FE5021206806E0CA684968F8
:101BC000206800F0FEFE6021206800F0E1FECEE714
:101BD000CA684968206800F0E3FE40212068F4E705
:101BE000226801461046F0E7704770B50446006869
:101BF00001694FF00005C943890715D4C168C9437D
:101C0000890711D4E91E01610120207720688069CD
:101C10008007204602D0FFF7E7FF04E000F098F8C5
:101C2000204600F096F8257720680169C9434907E6
:101C300017D4C168C943490713D46FF00401016187
:101C4000022020772068806910F4407F204602D06F
:101C5000FFF7CAFF04E000F07BF8204600F079F8B7
:101C6000257720680169C943090716D4C168C943AB
:101C7000090712D46FF00801016104202077206861
:101C8000C0698007204602D0FFF7AEFF04E000F0F5
:101C90005FF8204600F05DF8257720680169C943A8
:101CA000C90617D4C168C943C90613D46FF010011F
:101CB0000161082020772068C06910F4407F204629
:101CC00002D0FFF791FF04E000F042F8204600F058
:101CD00040F8257720680169C943C90708D1C16860
:101CE000C943C90704D1891E0161204600F032F8BA
:101CF00020680169C943090609D4C168C9430906B6
:101D000005D46FF0800101612046FFF721FE2068B5
:101D10000169C943490609D4C168C943490605D4C4
:101D20006FF040010161204600F030F82068016941
:101D3000C94389060BD4C168C943890607D46FF02B
:101D4000200101612046BDE87040FFF702BE70BD72
:101D50007047704708B50068094988420ED10020D5
:101D60000849034602460090A1F1440001F022FD1B
:101D7000BDE8084080210448FFF7BBB808BD00005B
:101D800000000140D8010020000402407047704765
:101D900070470000F8B5016804460868CA684B69D6
:101DA00010F00F0F4FF0000559D003F0010602F4B8
:101DB0009077374365D0C10705D0D10503D5216C95
:101DC00041F001012164410705D5D90703D0216CF9
:101DD00041F002012164810705D5D90703D0216CA8
:101DE00041F004012164010707D502F020013143CD
:101DF00003D0216C41F008012164216C00293AD004
:101E0000800604D5900602D5204600F01BFE20680F
:101E10004069216CC0F38010090700D460B32046EC
:101E200000F0E9FD20684069400621D520681430A3
:101E300050E8001F21F0400140E80012002AF5D1CF
:101E4000A06BA8B16C490165A06BFEF70EFF0028DE
:101E500011D0A06B016D01B0BDE8F04008478306CA
:101E60000FD593060DD52046BDE8F84000F0EABD39
:101E70002046FFF78DFFF8BD2046FFF789FF256458
:101E8000F8BD266B2023012E79D1C60677D5D6065C
:101E900075D50868486800904869400640D5A16B30
:101EA000086840680004000CEAD0A28D8242E7D99D
:101EB000E085C869B0F5807F2DD020680C3050E8EF
:101EC000001F21F4807140E80012002AF5D120683B
:101ED000143050E8001F21F0010140E80012002AF0
:101EE000F5D12068143050E8001F21F0400140E88F
:101EF0000012002AF5D184F83E30256320680C30AA
:101F000050E8001F21F0100140E80012002AF5D12E
:101F1000A06BFEF761FEA08DE18D401A81B229E031
:101F2000A08DE18D401A81B2E08D0028A8D0002953
:101F3000A6D020680C3050E8002F22F4907240E8C0
:101F40000026002EF5D12068143050E8002F22F032
:101F5000010240E80026002EF5D184F83E302563CA
:101F600020680C3050E8002F22F0100240E80023D7
:101F7000002BF5D12046FFF70AFFF8BDFFE7050665
:101F80002BD5150629D594F83D002128F5D1A06858
:101F9000B0F5805F01D12069B0B1206A411C216297
:101FA000216800784860E08C401E0004000CE0844A
:101FB000E3D12068C16821F08001C1602068C16858
:101FC00041F04001C160D8E7206A0088C0F30800F2
:101FD0004860206A801C2062E5E74006CDD55006A7
:101FE000CBD5CA68204622F04002CA6084F83D3052
:101FF00000F001F9C1E70000E729000870B504000E
:1020000004D094F83D00002510B106E0012070BD19
:1020100084F83C50204600F023F8242084F83D004A
:102020002068C16821F40051C160204600F06AFDBB
:102030002068016921F4904101612068416921F023
:102040002A0141612068C16841F40051C1602564E2
:10205000202084F83D0084F83E00002070BD000080
:1020600010B586B0044614216846FEF7B9F9174941
:102070002068884228D116480021026842F40032C4
:102080000260006800F400300590114810380268C2
:1020900042F008020260006800F00800059060202D
:1020A00000900220CDE90101032003900720049055
:1020B00069460848FEF7FEFD002211462620FFF77C
:1020C00061F92620FFF750F906B010BD004400402A
:1020D00040380240000C024090F83E30202B0ED1D8
:1020E00059B152B190F83C30012B08D0012380F84F
:1020F0003C300023036300F08BBD012070470220B9
:102100007047000070B50E48051F0178841D2878BF
:102110002154401CC0B22870062810D1002028701D
:102120002078617988420AD17E2808D1042120468E
:1021300001F042F92179884201D10120687070BD17
:10214000040000202DE9F843044690F83D001F46A6
:1021500016460D4620284CD1C5B1BEB194F83C00BE
:10216000012846D0012084F83C004FF00008C4F854
:102170004080212084F83D00FEF7C8FEA6848146F9
:10218000E684A068B0F5805F03D004E00120BDE8DC
:10219000F883206928B12E465FF0000584F83C8062
:1021A0000EE00026FAE78021204600F04CFDA0B9A1
:1021B000AEB116F8010B21684860E08C401EE08447
:1021C000E08C4B464FF0000200970028EBD14FF017
:1021D0004001204600F037FD30B10320D7E735F845
:1021E000020BC0F30800E6E7202084F83D00002041
:1021F000CDE70220CBE77047FEE701684A69D2438A
:1022000052050FD46FF480624A61002140F8301FFC
:10221000202242738173026942F004020261017359
:102220000120704700207047F8B50446C06A1E467A
:102230000D461746082807D0012805D010F5803F25
:1022400002D0206B122804D12068016841F480710B
:102250000160134600224FF001112046009600F065
:1022600057F840B120680068C00502D54FF40070EF
:1022700020640320F8BD2069B0F5804F0ED0062001
:10228000216800EAD51040F0F000086133463A4674
:102290000B49204600F070F878B902E005F0FE0026
:1022A00000E0E8B221680861054933463A46891FD3
:1022B000204600F061F80028DCD00120F8BD0000C5
:1022C0000800010070B516460D4604460DE0204694
:1022D000FFF793FF08B1012070BD681C05D0FEF721
:1022E00015FE801BA84207D835B120684069C0435D
:1022F0004007ECD4002070BD002044F8300F2021AE
:102300006173A073216941F0200121612073E2E72C
:102310002DE9F0471E4690460D460446C1F3074797
:10232000DDF8209008E0701C06D0FEF7EFFDA0EB72
:102330000900B0420FD876B12068012F18D080690B
:1023400025EA00000004000C14D000214145EAD029
:102350000020BDE8F087002044F8300F2021617391
:10236000A073216941F02001216120730120F0E771
:102370004069E5E70121E9E72DE9F0479A469146F2
:102380000E46044600254FF02008C1F3074725E01C
:1023900020684069C043400514D42068016841F4B6
:1023A0000071016021686FF480604861256384F8E2
:1023B0003D8084F83E50206C40F00400206484F896
:1023C0003C501FE0B9F1FF3F08D0FEF79FFDA0EBA6
:1023D0000A0149450CD8B9F1000F09D02068012F36
:1023E00013D0806926EA00000004000C0BD0CFE770
:1023F00044F8305F84F80D80A573206940F0200018
:10240000206125730120BDE8F0874069EAE770B5D7
:1024100016460D4604460DE02046FFF7EEFE08B1D5
:10242000012070BD681C05D0FEF770FD801BA8421E
:1024300007D835B120684069C0430006ECD40020BD
:1024400070BD002044F8300F20216173A073216912
:1024500041F0200121612073E2E700007FB50024F4
:10246000144800940194029411490394C0E90014A3
:10247000846001250461057680F820400E49C0E99A
:102480000A14C561C46080F830404561FEF73FFA28
:1024900008B172B6FEE7CDE90045694605480294E9
:1024A000FEF780F9002801D072B6FEE77FBD00007C
:1024B00000200140200000200100000F7FB5002413
:1024C000144800940194029411490394C0E9001443
:1024D000846001250461057680F820400E49C0E93A
:1024E0000A14C561C46080F830404561FEF70FFAF8
:1024F00008B172B6FEE70320CDE9000569460294F3
:102500000448FEF74FF9002801D072B6FEE77FBD00
:1025100000210140680000200100000F2DE9F04F6C
:1025200087B014216846FDF75BFF6348002401680B
:1025300041F004010160016801F0040105910168A6
:1025400041F020010160016801F02001059101685E
:1025500041F080010160016801F08001059101688E
:1025600041F001010160016801F00101059101687C
:1025700041F002010160016801F00201059101686A
:1025800041F008010160016801F00801059101684E
:1025900041F0400101600068DFF820A100F0400038
:1025A00044F281080590002241465046FEF7A9FCFE
:1025B000002240214248FEF7A4FC4FF400594FF49A
:1025C0008810CDF80090CDE90104DFF8F8B0694635
:1025D0005846FEF76FFB32200225CDE9000502AA1E
:1025E00003260B2782E8D00069465846FEF762FBB7
:1025F0008620CDE9000502AA694682E8D00032486B
:10260000FEF758FBCDF800804FF00108CDE90184BA
:10261000694650460394FEF74DFB02AA694682E8DC
:10262000D000CDE900955046FEF744FB3002CDE9DD
:10263000000502940720CDE9036069462348FEF7B0
:1026400039FB40200090CDE9018469461C48039481
:10265000FEF730FB8020CDE900046946184802945B
:10266000FEF728FB4FF4E850CDE9000502940A205C
:10267000CDE9036069461448FEF71CFB2802CDE94A
:102680000004694610480294FEF714FBB002CDE93D
:102690000004694658460294FEF70CFB4FF42050A4
:1026A000CDE9000502AA694682E8D0000448FEF799
:1026B00001FB07B0BDE8F08F303802400004024053
:1026C000001802400008024000000240000C0240D6
:1026D000134810B5114901601249416000214FF4BF
:1026E00080428160C0E9031241618161C161016280
:1026F000FEF752FC08B172B6FEE700210848FEF76B
:102700000BFC08B172B6FEE700210548FEF725FC78
:10271000002801D072B6FEE710BD0000005800404E
:10272000B0000020A086010010B586B00024184833
:102730000094019402940394049414490594016054
:1027400048F69F41C0E9011440F69F71C0E90314A7
:1027500044618461FFF746F908B172B6FEE74FF4B1
:102760008050009069460A48FFF7D0F908B172B668
:10277000FEE7049404A906480594FFF7EBF8002847
:1027800001D072B6FEE706B010BD000000000140A7
:102790000401002010B586B000241648009401946E
:1027A0000294039404944FF080410594016048F62C
:1027B0009F41C0E90114611EC0E903148461FFF761
:1027C00011F908B172B6FEE74FF4805000906946E7
:1027D0000848FFF79BF908B172B6FEE7049404A914
:1027E00004480594FFF7B6F8002801D072B6FEE75A
:1027F00006B010BD4C010020FEE7FEE770477047B1
:10280000FEF758BD30B593B030216846FDF7E8FDBE
:1028100014210CA8FDF7E4FD1D480025016841F0D6
:1028200080510160006800F08050119019480168E3
:1028300021F4404141F4804101600068022400F429
:102840004040119001200090000401908001CDE9EA
:10285000064008AA0420482182E813000B9068462D
:10286000FEF7ACFE08B172B6FEE70CA90F2081E8B6
:1028700031004FF4A050CDE90F0502210CA8FEF75E
:10288000B3FD002801D072B6FEE713B030BD0000E2
:1028900040380240007000400248016841F4700175
:1028A0000160704788ED00E00148FFF79EB9000025
:1028B00004010020F0B50268254C264D264E274F16
:1028C000274B4FF0804CA04209D0604507D0A8426A
:1028D00005D0B04203D0B84201D0984204D122F0D2
:1028E000700E4A6842EA0E02A0421BD0604519D021
:1028F000A84217D0B04215D0B84213D0984211D098
:10290000184DA8420ED0184DA8420BD0174DA84222
:1029100008D0174DA84205D0164DA84202D0164D3A
:10292000A84203D122F44075CA682A434D6922F0B7
:1029300080022A4302608A68C2620A688262A042F8
:1029400001D0984201D10969016301214161F0BDC3
:10295000000001400004004000080040000C00405E
:102960000004014000400140004401400048014093
:1029700000180040001C00400020004010B5846892
:1029800042EA032224F47F440A432243826010BDBA
:10299000826822F070020A4342F0070181607047AA
:1029A00010B5036A046A24F001040462846924F007
:1029B000F00444EA021423F00A020A43846102622A
:1029C00010BD10B5036A23F0100303628369046A23
:1029D00023F4704343EA023224F0A00343EA0111D6
:1029E0008261016210BD10B5806B0021C185C18478
:1029F000FFF7CEF910BD01680C3151E8002F22F429
:102A0000907241E80023002BF5D10168143151E8A0
:102A1000002F22F0010241E80023002BF5D1016BC9
:102A2000012909D101680C3151E8002F22F0100270
:102A300041E80023002BF5D1202180F83E10002131
:102A40000163704708B590F83E10222901D002209A
:102A500008BD82684FF480539A4201D1016921B1C7
:102A6000816A9A421BD04AB10AE00268816A5268C0
:102A7000C2F308020A80816A891C08E0026972B107
:102A80000268526802F07F020A70816A491C816202
:102A9000C18D491E0904090CC18503D019E00268E3
:102AA0005268F1E70168CA6822F02002CA60016832
:102AB000CA6822F48072CA6001684A6922F0010281
:102AC0004A61202180F83E10016B012903D0FFF7F5
:102AD00019FB002008BD0021016301680C3151E899
:102AE000002F22F0100241E80023002BF5D10168ED
:102AF0000A68D20602D50A6849680091818DFFF7FD
:102B000046F9E6E770B5044600680169E26821F419
:102B10004051114301612169A068E269084361697C
:102B2000114308432168CA6849F20C639A4302437F
:102B3000CA6020684169A26921F440711143416172
:102B400031492068884202D03049884202D1FEF7DC
:102B5000F5FC01E0FEF7E2FCE2690023192164259F
:102B60003226B2F5004F626828D0A0FB0101930F16
:102B70009200FDF7BEFB0146B0FBF5F06FF01802C6
:102B8000504301EB800006EB0010B0FBF5F000F0C5
:102B9000F002B1FBF5F002EB0012B1FBF5F06FF0C3
:102BA0001803584301EB800006EB0010B0FBF5F072
:102BB00000F00F0021681044886070BDA0FB010187
:102BC00092185B41FDF795FB0146B0FBF5F0020161
:102BD000B1FBF5F06FF01803584301EB800006EBF2
:102BE000C000B0FBF5F000F0F80002EB4002B1FBD2
:102BF000F5F0584301EB800006EBC000B0FBF5F0A8
:102C000000F00700D6E7000000100140001401406A
:102C100081628285C28500210164222280F83E20E3
:102C200080F83C100168CA6842F48072CA6001688A
:102C30004A6942F001024A610068C16841F020011E
:102C4000C160002070472DE9F041984617460E46B6
:102C50000446069D27E0681C25D02DB1FEF756F9E5
:102C6000A0EB0800A8421ED920680C3050E8001FD5
:102C700021F4D07140E80012002AF5D12068143008
:102C800050E8001F21F0010140E80012002AF5D1B0
:102C9000202084F83D0084F83E00002084F83C00A9
:102CA0000320BDE8F0812068006836EA000004D007
:102CB0000020B842CFD00020F3E70120F9E7000060
:102CC0000148FFF767B8000094010020FEE70907FC
:102CD000090E002804DB00F1E02080F800147047A2
:102CE00000F00F0000F1E02080F8141D7047000094
:102CF0002DE9F74F07462DED048B88460420FDF79C
:102D0000C9FA04469FEDFE0A80ED000A9FEDFD8A98
:102D1000002680ED018A80ED020A80ED038A0521FC
:102D2000304600F0FCFBF8A000F046FC0321012037
:102D300000F0F5FBF6A000F03FFC4FF4FA694846BE
:102D4000FDF7A6FF00F0A3FB0021084600F0E7FB1B
:102D5000F2A000F031FC0021012000F0E0FBF4A023
:102D600000F02AFC3846FEF795FE396800204862DC
:102D70004FF0804B4FF4005AF14F11E0DBF8241074
:102D80004FF47A70B1FBF0F0C6B20F21012000F0D1
:102D9000C6FBC6F13600C0B200F0EEFB062E1DD019
:102DA00051463846FEF7A0F80128E7D1062E24D078
:102DB00000F06DFB0721002000F0B1FBE1A000F066
:102DC000FBFB4846FDF764FF00F061FB56465146A9
:102DD0003846FEF789F801281BD026E000F057FBA3
:102DE0000021084600F09BFBD7A000F0E5FB002186
:102DF000012000F094FBD9A03AE2BDEC048B204600
:102E0000BDE8FE8F0121002000F089FBD7A000F073
:102E1000D3FB31463846FEF767F80128F2D000F0C0
:102E200036FB0021084600F07AFB5020FDF730FF0A
:102E30000021084600F073FBBA4626E0CFA000F060
:102E4000BBFB0521012000F06AFBD0A000F0B4FB21
:102E50004F464846FDF71CFF00F019FB00210846CD
:102E600000F05DFBCBA000F0A7FB0221012000F0E9
:102E700056FBCDA000F0A0FB3846FDF709FF00F09F
:102E800006FB0021084600F04AFB31465046FEF79B
:102E90002BF80128D2D1404600F0A7FA60F30F05C5
:102EA0000721002000F03BFBA6A000F085FB4F4669
:102EB0004846FDF7EDFE00F0EAFA3146D1465046AD
:102EC000FEF712F8012807D00CE00121002000F0E5
:102ED00026FBA6A000F070FB31464846FEF704F83A
:102EE0000128F2D05020FDF7D3FE00F0D0FACA46F8
:102EF00029E00021084600F012FBA0A000F05CFBD6
:102F00000621012000F00BFBABA000F055FB38467A
:102F1000FDF7BEFE00F0BBFA0021084600F0FFFA04
:102F20009CA000F049FB0221012000F0F8FA9EA0CD
:102F300000F042FB3846FDF7ABFE00F0A8FA002196
:102F4000084600F0ECFA31465046FDF7CDFF012867
:102F5000CFD1404600F049FA60F31F450721002019
:102F600000F0DDFA77A000F027FB3846FDF790FE71
:102F7000B146314656465046FDF7B6FF012807D008
:102F80000CE00121002000F0CAFA78A000F014FB48
:102F900049463046FDF7A8FF0128F2D05020FDF742
:102FA00077FE00F074FACA46B3462AE001210020F9
:102FB00000F0B5FA82A000F0FFFA0721012000F02E
:102FC000AEFA83A000F0F8FA3E463846FDF760FE00
:102FD00000F05DFA0021084600F0A1FA6DA000F0B3
:102FE000EBFA0221012000F09AFA6FA000F0E4FA57
:102FF0003046FDF74DFE00F04AFA0021084600F089
:103000008EFA51465846FDF76FFF0128CED106983B
:1030100000F02CFA60F30F080721002000F07FFA7F
:1030200048A000F0C9FAB9463846FDF731FE5646C9
:1030300051465F465846FDF757FF012807D00CE080
:103040000121002000F06BFA48A000F0B5FA3146EB
:103050003846FDF749FF0128F2D05020FDF718FE51
:1030600000F015FAB2462AE00121002000F057FADC
:1030700053A000F0A1FA0621012000F050FA55A05B
:1030800000F09AFA4E464846FDF702FE00F0FFF9BE
:103090000021084600F043FA3EA000F08DFA02211C
:1030A000012000F03CFA40A000F086FA3046FDF71F
:1030B000EFFD00F0ECF90021084600F030FA51462F
:1030C0003846FDF711FF0128CED1069800F0CEF961
:1030D00060F31F4806460721002000F020FA19A0DF
:1030E00000F06AFA4FF47A70FDF7D2FD00F0CFF9E4
:1030F0000121002000F013FAA8B22D0C401B6DE056
:10310000B6F37DBD00007F434C657427730000005B
:1031100063616C69627261746500000050524553CE
:1031200053205553522042544E20544F000000006B
:1031300053455420435553544F4D20535447530047
:10314000000802404F4B000044656661756C7420B6
:1031500073657474696E677300000000686176655A
:10316000206265656E20736574656400556E7075C8
:10317000736820627574746F6E000000507574205F
:10318000726967687420737469636B007269676839
:103190007400000057686E2075276C2062652072ED
:1031A0006561647900000000686F6C64207573725B
:1031B0002062746E000000006C6566740000000000
:1031C000507574206C65667420737469636B0000BD
:1031D00075700000646F776E0000000000F0DAFC8C
:1031E00041EC100B9FED289B53EC102B51EC190B6D
:1031F00000F078FB00F044FB00EE905A00EE100A5D
:103200001FFA88F0F8EE600A84ED000A801B60EE79
:10321000608AC4ED018A00F0BDFC41EC100B51EC5A
:10322000190B53EC102B00F05DFB00F029FB00EEB6
:10323000906A00EE100A18EE900AF8EE600A84ED2B
:10324000020A134920EE600A884284ED030A01DB7A
:1032500084ED018A10EE100A884201DB84ED038AB6
:103260000CA000F0A9F90421012000F058F90DA0EC
:1032700000F0A2F94846FDF70BFD00F008F9002127
:10328000084600F04CF9B8E50000000000E06F408F
:1032900000007F4343616C6962726174696F6E20E4
:1032A000686173006265656E20646F6E6500000082
:1032B000F0B585B0002506460195029503954FF4BB
:1032C0000054274F04950DE00021084600F027F92F
:1032D00024A000F071F90221012000F020F926A0BD
:1032E00000F06AF921463846FDF7FEFD0128EBD1D2
:1032F00000F0CDF80121002000F011F922A000F02B
:103300005BF900231A4601A93046009500F052FAF5
:10331000214C04E0012221493046FEF7DDFE2078F1
:103320000128F7D1257000F0B2F80221002000F04A
:10333000F6F81BA000F040F90121084600F0EFF874
:103340001AA000F039F94FF4FA60FDF7A1FC00F083
:103350009EF80021084600F0E2F805B0F0BD00003C
:103360000008024050726573732075737220627496
:103370006E20746F00000000636865636B20636FEC
:103380006E6E2D6F6E00000054727920746F206392
:103390006F6E6E6563740000010000200400002061
:1033A000434F4E4E454354494F4E00004553544100
:1033B000424C49534845440030B50346FF20312470
:1033C0000FE000BF13F8012B50400022050602D584
:1033D00084EA400000E04000521CD2B2C0B2082A89
:1033E000F4D3491EC9B2EDD230BD70B50546FDF724
:1033F00057FB0A212846FDF7FDFA2846FDF784FA17
:1034000084B22846FDF7CAFB204670BD2DE9F04185
:10341000154D4FF4806421462846FDF765FD660092
:1034200020B131462846FDF75FFDC0B92746214649
:103430002C462846FDF758FD38B931462046FDF7A1
:1034400053FD10B10120BDE8F08139462046FDF75B
:103450004BFD20B131462046FDF746FD08B1002066
:10346000F1E70220EFE700000008024070B50546D2
:10347000FDF716FB0A212846FDF7BCFA2846FDF7A2
:1034800043FA84B22846FDF789FB204670BD10B58B
:10349000802000F051F80024202000F06DF8641C1A
:1034A000462CF9DB10BD10B53220FDF7F1FB3020C2
:1034B00000F042F80520FDF7EBFB302000F03CF86F
:1034C0000120FDF7E5FB302000F036F80A20FDF77B
:1034D000DFFB202000F030F80A20FDF7D9FB282080
:1034E00000F02AF80120FDF7D3FB082000F024F8B3
:1034F0000120FDF7CDFB012000F01EF80120FDF7B3
:10350000C7FB0120FDF7C4FB062000F015F80120E1
:10351000FDF7BEFBBDE810400C2000F00DB810B167
:10352000012805D102E041F0800101E041F0C00135
:10353000C8B200F001B800001CB500F0F00141F085
:103540000C028DF8042041F0080100018DF80510EF
:1035500040F00C018DF8061040F008008DF80700CF
:1035600064200090042301AA4E210248FDF7D8FDF3
:103570001CBD0000B00000201CB500F0F00141F0BF
:103580000D028DF8042041F0090100018DF80510AD
:1035900040F00D018DF8061040F009008DF807008D
:1035A00064200090042301AA4E210248FDF7B8FDD3
:1035B0001CBD0000B000002010B5044602E0641CF1
:1035C000FFF7DAFF20780028F9D110BD08B5FDF724
:1035D00079FEFFF717F9FEF7A1FFFEF73FFFFEF7B1
:1035E0006DFFFFF775F861485F49002501604FF4F2
:1035F0009641C0E901150C21C560C0E904518561FF
:10360000C561FEF7FBFC08B172B6FEE7FFF7C2F832
:10361000FFF78AF85648FDF77AF955484830FDF724
:1036200076F9FFF740FF05210020FFF778FF51A052
:10363000FFF7C2FF4FF4FA60FDF72AFBFFF727FF01
:1036400000210846FFF76BFF494A4949483201F516
:103650009670FFF74DFB454990ED000A443181ED2E
:10366000000A90ED010A81ED010A90ED020A81ED58
:10367000020A90ED030A3D4881ED030AD439FFF7B1
:1036800017FE00210120FFF74AFF3CA0FFF794FF3F
:1036900009210120FFF743FF3AA0FFF78DFF3348D0
:1036A000483800684562394C65703148FFF79DFE27
:1036B000E0802F484830FFF7D9FE2081FFF7A6FEB3
:1036C000A070022802D1E178491CE170E17801295B
:1036D0000BD00090032925492389E288234801F172
:1036E000440117D000F066F8DFE700901F492389F6
:1036F000E28844311D4800F05DF802210020FFF708
:103700000EFF23A0FFF758FFE078401CE0704FF455
:10371000167025E000F04EF800210846FFF7FFFE86
:103720001FA0FFF749FF05E018490122091D0F48B6
:10373000FEF7D2FC60780128F6D16570E570FFF7DE
:10374000A6FE00210120FFF7EAFE0CA0FFF734FFE0
:1037500009210120FFF7E3FE0AA0FFF72DFF0A2051
:10376000FDF796FAA1E70000004400409401002014
:103770002000002048656C6C6F00000056652D74B9
:10378000793A0000546D3A303A30000000000020D1
:1037900052455645525345204D4F444500000000C8
:1037A000454E442052455645525345204D4F4445C1
:1037B000000000002DE9FC471E467E2517460C46FA
:1037C000DDF82880012381468DF800508DF80450E3
:1037D0001A466946FEF7B6FC00EE107AD4ED010AEF
:1037E00094ED001AB8EE400A01231A46694641EEEC
:1037F000000ABCEEE00A10EE100A8DF800008DF809
:1038000005004846FEF79EFC00EE106AD4ED030A60
:1038100094ED021AB8EE400A01231A46694641EEB9
:10382000000ABCEEE00A10EE100A8DF800008DF8D8
:1038300006004846FEF786FC01238DF800808DF8CF
:1038400007801A4669464846FEF77CFC042101A819
:10385000FFF7B2FD8DF8000001231A46694648467D
:10386000FEF770FC01238DF800501A466946484661
:10387000FEF768FC1820FDF70BFABDE8FC87000096
:1038800021F00042A2F16052B2F5801F01F0004326
:1038900028BFD2F17F6C0BD95FEA001C43EAC20259
:1038A00042EB507018BF704728BF20F001007047EE
:1038B000B2F5801FBCBF184670474FEA410C1CF59B
:1038C000001F02D2084600F0D5B970B500F079F9B2
:1038D00000000089FFF7F6BF4FF00040A0F5800020
:1038E000704700002DE9C04130B4DFF8A0C23CEAC7
:1038F000111418BF3CEA131400F0EC8081EA0305B0
:103900001CEA111444EAD57418BF1CEA131500F020
:10391000C780A4EB05044FF0004545EAC12145EA04
:10392000C32341EA505143EA525304F17F74994250
:1039300004F500344FEAC0204FEAC22208BF90428B
:1039400000F09C804FEA13650FF24016765D4FEA57
:10395000134506FB05F7C7F1807706FB07F74FEA2B
:10396000D737A7FB03687642C8F58038A7FB06CE99
:1039700038BFA8F1010807FB08E64FF0000EA6FBD0
:10398000028CE6FB03CEDCF1000CCEF1004E38BF1A
:10399000AEF1010EA6FB0C584FF000074FF00005EA
:1039A000E6FB0E87A1FB08C6A0FB07CE16EB0E06B2
:1039B00045F10005E1FB076515F1E04E7EBFA4F57A
:1039C00080345FEA46066D4116F1800745F1000537
:1039D0004FEA17274FEA066647EA0567A6F1DE4673
:1039E000B6F1805F4FEA15251FD9384624F0010C47
:1039F00005EBC471BCF1FE6F01EB0C1102D8F0BCF9
:103A0000BDE8008124425CBF01F5801E9EEAC47FB0
:103A100002D4F0BCBDE80081244238D4F0BCA1F14E
:103A2000C041BDE8004100F01AB94FEAD22242EA93
:103A300043524FEAD323A7FB02864FEAD02040EA45
:103A4000415007FB03661EEA0E0F4FEAD12105FB2A
:103A5000026658BFA6EB0056B6EB00564FEA520E70
:103A60004EEAC37E18EB0E0E56EB530EBDD518EB87
:103A700002085E417F1C55F10005B6E74FF4801542
:103A80004FF000074FF000064FF00008ADE7F0BC24
:103A90004FF0000001F1C04101F00041BDE800819C
:103AA00011EA0C1F0CEA131500D00CE013EA0C1FEE
:103AB00000F025804FF00000F0BC81EA030101F026
:103AC0000041BDE80081F0BCBDE8004181EA03018E
:103AD00000F0C5B8F0BCBDE8004170B500F071F869
:103AE000097EFC3E00F007B881EA03014FF00000B8
:103AF00001F00041704781EA030100F0B0B8F0BC6A
:103B0000BDE800414FF0000021497047FFFDFBF97F
:103B1000F7F5F4F2F0EEEDEBE9E8E6E4E3E1E0DE00
:103B2000DDDBDAD8D7D5D4D3D1D0CFCDCCCBCAC872
:103B3000C7C6C5C4C2C1C0BFBEBDBCBBBAB9B8B799
:103B4000B6B5B4B3B2B1B0AFAEADACABAAA9A8A88C
:103B5000A7A6A5A4A3A3A2A1A09F9F9E9D9C9C9B5A
:103B60009A99999897979695959493939291919005
:103B70008F8F8E8E8D8C8C8B8B8A89898888878796
:103B80008685858484838382828181800000FF070B
:103B90000000F87F10F0004248BF4042B0FA80F3C6
:103BA00010FA03F10AD0C3F11D0303F580634FEA55
:103BB000415002EB035202EBD12170474FF000005D
:103BC00070470EF1020E2EF0030E5EF8046B3642C3
:103BD00005D4012A43EB030515F5001F12D801286F
:103BE00041EB010C1CF5001F0CD80ED14FEAD17C23
:103BF00015F5001F0CEB4C0C0CF1020C08BF4CEB44
:103C0000D37C04E04FF0080C01E04FEAD37C0CEBCE
:103C10004C0526FA05F606F00706B6F1040C06D2A6
:103C20000EEB860CBDE870404CF0010C6047DFE8FD
:103C30000CF0090B02024FF000414FF00000A1F51B
:103C4000002170BD19461046012851EB010418BF30
:103C5000D4F5001484BF002001F0004170BD0808B5
:103C6000A0F500114FEA310170474FF04070E1EECE
:103C7000100A7047FF2141EAD050C005704700008C
:103C8000000000000000010203040607080900000C
:103C90000000010203040000B83C000800000020FE
:103CA00020000000E8010008D83C000820000020A7
:103CB00028080000040200080000000000000000C6
:103CC00000000000000000000100000010000000E3
:083CD000000000000024F400D4
:04000005080001AD41
:00000001FF
