:020000040800F2
:1000000018560020790200086F200008551D0008CE
:100010006D20000899050008732700080000000003
:10002000000000000000000000000000F1200008B7
:10003000E10500080000000071200008F32000081E
:10004000930200089302000893020008930200083C
:10005000930200089302000893020008930200082C
:10006000930200089302000893020008930200081C
:10007000930200089302000893020008930200080C
:1000800093020008930200089302000893020008FC
:1000900093020008930200089302000893020008EC
:1000A00093020008930200089302000893020008DC
:1000B00099210008930200089302000893020008A7
:1000C00093020008930200089302000893020008BC
:1000D00093020008930200089302000893020008AC
:1000E000930200089302000893020008930200089C
:1000F000930200089302000893020008930200088C
:10010000930200089302000893020008930200087B
:100110007924000893020008930200089302000863
:10012000930200089302000893020008930200085B
:10013000930200089302000893020008930200084B
:10014000930200089302000893020008930200083B
:10015000930200089302000893020008930200082B
:10016000930200089302000893020008930200081B
:100170009302000893020008000000000000000045
:1001800093020008930200089302000893020008FB
:100190009302000893020008000000009302000888
:1001A0009302000893020008000000000000000015
:1001B0009302000800000000000000009302000805
:1001C00093020008930200089302000893020008BB
:1001D000930200089302000800F002F800F03CF8D7
:1001E0000AA090E8000C82448344AAF10107DA4592
:1001F00001D100F031F8AFF2090EBAE80F0013F0A8
:10020000010F18BFFB1A43F00103184744320000E6
:1002100064320000103A24BF78C878C1FAD8520777
:1002200024BF30C830C144BF04680C607047000070
:100230000023002400250026103A28BF78C1FBD8EF
:10024000520728BF30C148BF0B6070471FB503F08D
:10025000EDF81FBD10B510BD00F0CFF81146FFF747
:10026000F5FF02F0DDFA00F0EDF803B4FFF7F2FF5E
:1002700003BC00F0F5F80000094880470948004732
:10028000FEE7FEE7FEE7FEE7FEE7FEE7FEE7FEE746
:10029000FEE7FEE704480549054A064B70470000A3
:1002A00089210008D90100081850002018560020A4
:1002B000185200201852002053EA020C00F0698006
:1002C0002DE9F04B4FF00006002B1FBFB3FA83F56A
:1002D00003FA05F424FA05F65E4012BF1643B2FA9B
:1002E00082F502FA05F4C5F120051EBF22FA05FCCD
:1002F00044EA0C04203556EA044C4FEA144418BF73
:10030000641C4FF000084FF00009904271EB030CA1
:1003100039D3002919BFB1FA81F701FA07F6B0FA0B
:1003200080F700FA07F6C7F120071EBF20FA07FC86
:1003300046EA0C062037B6FBF4FCA7EB0507103F96
:1003400007F01F0BCBF120060CFA0BFB2CFA06F67C
:1003500044BFB3460026202FA4BF5E464FF0000BDB
:100360005BEA060C08BF4FF0010B19EB0B09ABFB66
:10037000027C48EB0608C01B06FB02CC0BFB03CC3F
:1003800071EB0C01C1E70B46024641464846BDE809
:10039000F08B13B54FF000004FF00001AFF3008079
:1003A000BDE81C4070474FF0000200B5134694466C
:1003B0009646203922BFA0E80C50A0E80C50B1F1BD
:1003C0002001BFF4F7AF090728BFA0E80C5048BFD1
:1003D0000CC05DF804EB890028BF40F8042B08BF6F
:1003E000704748BF20F8022B11F0804F18BF00F86B
:1003F000012B7047704770477047754600F02CF826
:10040000AE4605006946534620F00700854618B001
:1004100020B5FFF73FFFBDE820404FF000064FF04A
:1004200000074FF000084FF0000B21F00701AC4629
:10043000ACE8C009ACE8C009ACE8C009ACE8C00948
:100440008D46704710B50446AFF300802046BDE8E6
:100450001040FFF70ABF000000487047B44F00206B
:1004600001491820ABBEFEE72600020070470000DD
:10047000464910B54A6822F440324A604A684368E7
:100480001A434A6001684A6822F480724A6001682F
:100490004A68036942EA03224A6001684A6822F016
:1004A00040724A6001684A6883681A434A6001687A
:1004B0008A6822F400628A6001688A68C3681A4305
:1004C0008A60816A6FF07062D14201688A6822F0A6
:1004D00070628A6001688A680CD0836A1A438A60F5
:1004E00001688A6822F040528A6001688A68C36A9B
:1004F0001A4301E022F040528A6001688A6822F0C3
:1005000002028A6001688A68037E42EA43028A60C6
:1005100090F82010002901684A680FD042F4006268
:100520004A6001684A6822F460424A6001684A6889
:10053000174C436A04EB43331A4301E022F4006290
:100540004A600168CA6A22F47002CA620168CA6A13
:10055000838B104C04EB03531A43CA6201688A6808
:1005600022F400728A6001688A6890F8303042EAAA
:1005700043228A6001688A6822F480628A60016886
:100580008A68406942EA8020886010BD00230140EB
:1005900000E0FFFF0000F0FFFEE70000F0B50B49B0
:1005A00000200B4B09880B4C0B4D0C4E0BE00A1A2C
:1005B000D7182A4417F8017C275412F8012CC2F1ED
:1005C000FF023254401C8842F1DBF0BD0C000020D9
:1005D00020000020A813002030270020B83A002077
:1005E0007047000078B50024009490F83C20012A60
:1005F00019D0012280F83C200A6807230568092ADF
:1006000013D9EE680A3A02EB420293409E43EE6031
:100610000B788A680A3B03EB43039A400368DD6862
:100620002A43DA6010E0022078BD2E6902EB420214
:1006300093409E432E610B788A6803EB43039A40F4
:1006400003681D692A431A614A681F23072A13D2C7
:1006500005686E6B521E02EB820293409E436E63EE
:100660000A8893B20A79521E02EB82029340026812
:10067000556B2B43536327E005680D2A12D22E6B6E
:10068000D21F02EB820293409E432E630B790A88AD
:10069000DB1F92B203EB83039A4003681D6B2A436E
:1006A0001A6311E0EE6A0D3A02EB820293409E4318
:1006B000EE620B790A880D3B92B203EB83039A40FA
:1006C0000368DD6A2A43DA621B4B0568194A9D42BA
:1006D0000AD10D68122D07D1556825F40005556023
:1006E000556845F48005556005689D421DD1134D40
:1006F0000B68AB4201D0112B17D1536823F4800350
:100700005360536843F4000353600968A9420CD155
:100710000B490C4A0968B1FBF2F101EB8101490078
:1007200000E0491E00910029FBD180F83C400020E8
:1007300078BD00000023014000200140120000109D
:100740001C00002040420F0070B504004FF000056F
:1007500003D0206C002610B107E0012070BD2046B8
:1007600000F01CF8666484F83C60206CC00610D46D
:10077000206C20F4885040F0020020642046FFF7EF
:1007800077FE6664206C20F0020040F001002064D7
:1007900000E0012584F83C60284670BD10B586B0A5
:1007A000044614216846FFF7FEFD1149206888427F
:1007B0001CD110480021026842F480720260006877
:1007C00000F4807005900B481438026842F0010272
:1007D0000260006800F001000590012000900320F5
:1007E000CDE901016946044800F0DCF806B010BD0F
:1007F00000200140443802400000024018B50021AA
:10080000009190F83C20012A07D0012280F83C207A
:1008100002689368DB0702D011E0022018BD9368DC
:1008200043F001039360244A244B1268B2FBF3F2B5
:1008300002EB420200E0521E0092002AFBD1026845
:100840009368DB072ED0036C40F20164A34343F4AA
:100850008073036453685B0505D5036C23F4005370
:1008600043F480530364036CDB0404D5436C23F02E
:100870000603436400E0416480F83C1010496FF0C7
:100880002203136049680068C90602D00D498842F6
:1008900010D1816811F0405F0CD1816841F0804136
:1008A000816007E0016C41F010010164416C41F08E
:1008B00001014164002018BD1C00002040420F00CF
:1008C00000230140002001402DE9F0410446876DDE
:1008D00000F05CF9064694F835000025022806D0A1
:1008E0008020606584F834500120BDE8F0812068E4
:1008F000016821F0160101602068416921F0800142
:100900004161206C08B9A06C20B12068016821F019
:10091000080101602068016821F0010101600CE01C
:1009200000F034F9801B052807D9202060650320DA
:1009300084F8350084F83450D7E720680068C00791
:10094000EED194F85C103F208840B860012084F814
:10095000350084F834500020C7E790F8351002299C
:1009600003D08021416501207047052180F83510B2
:100970000068016821F0010101600020704700005B
:1009800070B5044600F002F90546601C02D0044828
:100990000078044400F0FAF8401BA042FAD370BD7E
:1009A000100000202DE9F84FDFF8ACA1002201244F
:1009B0000AF1040B03254FF00F090BF1040E00BFE1
:1009C0000B6804FA02F63340B3426ED10F7907F098
:1009D0000307012F01D0022F16D187684FEA420882
:1009E00005FA08FC27EA0C07D1F80CC00CFA08FC41
:1009F0004CEA070CC0F808C04768B7430E79C6F345
:100A0000001696403E4346600E79F643B6070AD07C
:100A1000C6684FEA420C05FA0CF7BE438F6807FA26
:100A20000CF73743C7600E7906F00306022E10D18B
:100A3000D60800EB8608D8F8206057074FEAD76C35
:100A400009FA0CF7BE430F6907FA0CF73743C8F8E9
:100A5000207006684FEA420C05FA0CF7BE430F7986
:100A600007F0030707FA0CF7374307604E6816F4E0
:100A7000403F6BD0394E376847F48047376036685F
:100A800022F0030706F480460096354E07EB060C6D
:100A9000DCF8086897074FEA177809FA08F7BE43A9
:100AA000304FB84202D100271FE04FE02E4FB8422E
:100AB00001D1012719E02D4FB84201D1022714E0DE
:100AC0002B4FB84201D103270FE02A4FB84201D182
:100AD00004270AE0284FB84201D1052705E0274F37
:100AE000B84201D1062700E0072707FA08F7374385
:100AF000CCF80878DAF800605746D1F804C09E4375
:100B00005FEACC3C00D51E433E60DBF800605F46E8
:100B1000D1F804C09E435FEA8C3C00D51E433E6082
:100B2000DEF800607746D1F804C09E435FEACC2C23
:100B300000D51E433E60084F0C373E68D1F804C014
:100B40009E435FEA8C2C00D51E433E60521C102A47
:100B5000FFF436AFBDE8F88F003C01404438024056
:100B60000030014000000240000402400008024042
:100B7000000C024000100240001402400018024025
:100B80000AB1816170470904FBE7000001488068F1
:100B9000704700001000002002488168027811446C
:100BA00081607047100000200B4810B5016841F4C7
:100BB00000710160016841F480610160016841F4E5
:100BC00080710160032000F06FF8002000F006F84B
:100BD00000F024F8002010BD003C024070B50D4D1F
:100BE00004464FF47A712878B1FBF0F00A4909689D
:100BF000B1FBF0F000F014FB48B9102C07D2002232
:100C00002146501E00F030F800206C6070BD0120BD
:100C100070BD0000100000201C0000200A4808B52C
:100C2000016841F480410160006800F48040009058
:100C30000548001F016841F080510160006800F024
:100C40008050009008BD000044380240002809DBB5
:100C500000F01F02012191404009800000F1E020D6
:100C6000C0F8001170470000F0B40E4B1B680C4632
:100C7000C3F30223C3F10705042D00D90425191D70
:100C8000072901D2002300E0DB1E012606FA05F148
:100C9000491E214099409E40761E16403143F0BCCB
:100CA00001F078BD0CED00E0064900F0070208688D
:100CB0004FF6FF03184040EA0220034A1043086041
:100CC000704700000CED00E00000FA052DE9F04748
:100CD0000E46050065D0DFF81481D8F80000F7B2A1
:100CE00000F00700B04207D288F80070D8F8000082
:100CF00000F00700B04254D128683D4C810712D55E
:100D0000400703D5206840F4E050206028780007B1
:100D100003D5206840F4604020602068A96820F076
:100D2000F000084320602878C0072DD0304968685B
:100D30000839012812D0022813D0032811D00968DD
:100D4000890700292DDA216821F003010143216080
:100D5000FFF71CFF814641F2883A0EE009688903DB
:100D6000EFE709688901ECE7FFF710FFA0EB090145
:100D7000514502D90320BDE8F0872068696800F07A
:100D80000C00B0EB810FEFD1D8F80010404601F015
:100D90000701B14207D90770006800F00700B042B0
:100DA00001D00120E7E72878400705D52068E968E9
:100DB00020F4E050084320602878000706D520681A
:100DC000296920F4604040EAC100206000F038F852
:100DD0002168084AC1F30311515CC8400649086004
:100DE00006480068FFF7FAFE0020C4E7003C024016
:100DF00008380240363400081C000020140000208F
:100E00000448054900680968044AC1F38221515C1D
:100E1000C84070471C0000200838024046340008D3
:100E20000448054900680968044AC1F34231515C2D
:100E3000C84070471C0000200838024046340008B3
:100E4000154810B5006810F00C02144813D041107A
:100E5000042A0FD0082A0ED10F4C241F22682368C1
:100E600002F03F025B0207D52068C0F38810A0FBA8
:100E7000010106E0084610BD2168C1F38811A1FBFD
:100E800000010023FFF718FA2168C1F30141491C52
:100E90004900B0FBF1F010BD083802400024F40016
:100EA0002DE9F84F04006ED02078DFF86093C0077A
:100EB000A9F104054AD009F104000168C1F38101D8
:100EC000012908D00068C0F3810002280AD1D9F8AE
:100ED0000000400206D52868800337D560680028E6
:100EE000E1D033E06068B0F5803F10D0B0F5A02FBE
:100EF000286810D020F480302860286820F48020F2
:100F000028606068A8B1FFF741FE06460DE028683A
:100F100040F48030F4E740F480202860F7E700BF19
:100F2000FFF734FE801B642873D828688003F7D548
:100F30000CE0FFF72BFE064605E000BFFFF726FE9C
:100F4000801B6428F0D828688003F7D42078DFF865
:100F5000C08280074FF0000A3ED5AC48001D0168F2
:100F600011F00C0F08D00068C0F3810002280BD1EB
:100F7000D9F80000400207D42868800716D5E06839
:100F8000012800D112E03CE1E068B8B10120C8F8C6
:100F90000000FFF7FBFD064605E000BFFFF7F6FD8A
:100FA000801B0228C0D828688007F7D528682169E7
:100FB00020F0F80040EAC10028600DE0C8F800A069
:100FC000FFF7E4FD064604E0FFF7E0FD801B022882
:100FD0001FD828688007F7D42078000722D58B4EC9
:100FE0008C486169703671B101210160FFF7CEFD57
:100FF000074604E0FFF7CAFDC01B022809D8306885
:101000008007F7D50EE0C0F800A0FFF7BFFD074648
:1010100005E082E0FFF7BAFDC01B02287DD83068EA
:101020008007F7D42078400768D5DFF8E0B10027C3
:101030000BF13C0BDBF80000C0000BD4DBF8001018
:1010400041F08051CBF80010DBF80000012700F0E0
:1010500080500090704E3068C00510D4306840F465
:1010600080703060FFF792FD009005E0FFF78EFD85
:101070000099401A022850D83068C005F6D5634E52
:10108000A0686C3601280FD00528306810D020F0F9
:1010900001003060306820F004003060A068B8B112
:1010A000FFF774FD00900FE0306840F00100F4E7B6
:1010B00040F004003060F7E7FFF768FD0099411A3F
:1010C00041F28830814268D830688007F4D50EE05C
:1010D000FFF75CFD009007E0FFF758FD0099411A0B
:1010E00041F28830814258D830688007F4D42FB15B
:1010F000DBF8001021F08051CBF80010A069D8B3C4
:101100004249091D0968C1F3810102294CD0022816
:10111000504607D0C8F8600000E03EE0FFF736FD1B
:1011200004463DE04746C8F86000FFF72FFD06463D
:1011300005E000BFFFF72AFD801B02282DD8286894
:101140008001F7D4F4E907010843E168334A49080C
:1011500002EB0141A26841EA82110843217C40EA86
:101160000160217D40EA0171C9F800100120386654
:10117000FFF70CFD044606E045E000BFFFF706FD63
:10118000001B022809D828688001F7D53BE000BF82
:10119000FFF7FCFC001B022802D90320BDE8F88FF2
:1011A00028688001F4D42EE00128F7D0D9F8000097
:1011B000E26900F48001914223D1226A00F03F01EC
:1011C00091421ED147F6C071626A0140B1EB821FA5
:1011D00017D1A26A4FF0FF3300F4403103EB520203
:1011E000B1EB024F0DD194F82C2000F07061B1EBFF
:1011F000026F06D194F8301000F0E040B0EB017FB0
:1012000001D00120CAE70020C8E7000004380240EE
:1012100000004742800E4742007000400000FFFF80
:1012200010B5401EB0F1807F01D3012010BD4FF0FA
:10123000E02460610F21601701F0ACFA0020A0618A
:1012400007202061002010BD7047704770B590F8EE
:101250003C20012A32D0012480F83C40022280F850
:101260003D2003685A689D6822F070060A68324380
:101270005A60134B02689A4214D0B2F1804F11D0D9
:10128000104B9A420ED0104B9A420BD00F4B9A4201
:1012900008D00F4B9A4205D00E4B9A4202D00E4B0B
:1012A0009A4204D1496825F080031943916080F87F
:1012B0003D40002180F83C10084670BD022070BD02
:1012C000000001400004004000080040000C004005
:1012D00000040140004001400018004010B5040027
:1012E00003D094F83D0010B107E0012010BD0020AC
:1012F00084F83C00204600F01FF8022084F83D00EE
:10130000211D206800F04EFF012084F8460084F87B
:101310003E0084F83F0084F8400084F8410084F8DF
:10132000420084F8430084F8440084F8450084F8BF
:101330003D00002010BD000008B501681648B1F15D
:10134000804F0AD0154A914219D1016841F002013B
:101350000160006800F002001BE0016841F001013B
:1013600001600068002200F00100009011461C207E
:10137000FFF77AFCBDE808401C20FFF767BC084A6D
:10138000914207D1016841F008010160006800F056
:101390000800009008BD00004038024000040040F2
:1013A000000C004090F83D10012901D00120704749
:1013B000022180F83D1000681149884214D0B0F134
:1013C000804F11D00F4988420ED00F4988420BD070
:1013D0000E49884208D00E49884205D00D498842FE
:1013E00002D00D49884204D1816801F00701062925
:1013F00003D0016841F00101016000207047000046
:10140000000001400004004000080040000C0040C3
:1014100000040140004001400018004070B504463F
:1014200090F83C000025012817D0012684F83C6084
:10143000022084F83D002068826822F0770222F4BE
:101440007F4282600868502838D00DDC20284FD0B9
:1014500005DC90B3102811D14AE0022070BD30287D
:1014600046D040280AD13BE060282FD070280DD00C
:10147000B0F5805F03D0B0F5005F12D0012584F88D
:101480003D60002084F83C00284670BDCB68D1E95F
:101490000121206800F0F7FE2068816841F07701A3
:1014A00009E0CB68D1E90121206800F0ECFE20685A
:1014B000816841F480418160E1E719E0CA684968C8
:1014C000206800F0B5FF5021206806E0CA6849682E
:1014D000206800F0BEFF6021206800F0DEFECEE74D
:1014E000CA684968206800F0A3FF40212068F4E73B
:1014F000226801461046F0E7704770B50446006860
:1015000001694FF00005C943890715D4C168C94373
:10151000890711D4E91E01610120207720688069C4
:101520008007204602D0FFF7E7FF04E000F0C2F892
:10153000204600F054F9257720680169C94349071E
:1015400017D4C168C943490713D46FF0040101617E
:10155000022020772068806910F4407F204602D066
:10156000FFF7CAFF04E000F0A5F8204600F037F9C5
:10157000257720680169C943090716D4C168C943A2
:10158000090712D46FF00801016104202077206858
:10159000C0698007204602D0FFF7AEFF04E000F0EC
:1015A00089F8204600F01BF9257720680169C943B6
:1015B000C90617D4C168C943C90613D46FF0100116
:1015C0000161082020772068C06910F4407F204620
:1015D00002D0FFF791FF04E000F06CF8204600F025
:1015E000FEF8257720680169C943C90708D1C16899
:1015F000C943C90704D1891E0161204600F054F98E
:1016000020680169C943090609D4C168C9430906AC
:1016100005D46FF0800101612046FFF715FE2068B8
:101620000169C943490609D4C168C943490605D4BB
:101630006FF040010161204600F037F92068016930
:10164000C94389060BD4C168C943890607D46FF022
:10165000200101612046BDE87040FFF7F6BD70BD76
:1016600010B586B0044614216846FEF79CFE0E496C
:101670002068884215D10D480021026842F004021A
:101680000260006800F0040005904FF48070009044
:101690000220CDE90101CDE9031069460448FFF7B6
:1016A00081F906B010BD000000040040303802404F
:1016B00000080240704770B5044690F83C000026D0
:1016C0000D4601280FD0012084F83C006AB1042A9D
:1016D0001DD0082A2FD00C2A3FD00126002084F8E4
:1016E0003C00304670BD022070BD206800F0DEFD79
:1016F0002068816941F0080181612068816921F0D9
:1017000004018161206881692A69114311E0206820
:1017100000F0FCFD2068816941F40061816120686E
:10172000816921F480618161206881692A6941EAC7
:1017300002218161D2E7206800F01EFE2068C169A5
:1017400041F00801C1612068C16921F00401C16153
:101750002068C1692A69114311E0206800F040FE49
:101760002068C16941F40061C1612068C16921F448
:101770008061C1612068C1692A6941EA0221C161B1
:10178000ACE710B5040003D094F83D0010B107E0B9
:10179000012010BD002084F83C00204600F01EF817
:1017A000022084F83D00211D206800F0FBFC012090
:1017B00084F8460084F83E0084F83F0084F8400036
:1017C00084F8410084F8420084F8430084F844001F
:1017D00084F8450084F83D00002010BD7047704734
:1017E00010B50446022249B104290ED0082913D0AD
:1017F00094F84100012816D0012010BD94F83E0055
:101800000128F9D184F83E200FE094F83F00012828
:10181000F2D184F83F2008E094F840000128EBD191
:1018200084F8402001E084F841200122206800F083
:101830001DFD16492068164A884201D0904203D106
:10184000436C43F4004343642068884213D0B0F1F2
:10185000804F10D00F4988420DD00F4988420AD0DE
:101860000E49884207D0904205D00D49884202D0E7
:101870000C49884204D1816801F00701062903D090
:10188000016841F001010160002010BD000001402D
:10189000000401400004004000080040000C00402B
:1018A0000040014000180040704770477047704783
:1018B000F8B5016804460868CA684B6910F00F0F54
:1018C0004FF0000559D003F0010602F4907737433A
:1018D00065D0C10705D0D10503D5216C41F00101C8
:1018E0002164410705D5D90703D0216C41F00201DD
:1018F0002164810705D5D90703D0216C41F004018B
:101900002164010707D502F02001314303D0216C87
:1019100041F008012164216C00293AD0800604D5E9
:10192000900602D5204600F0DCFD20684069216C5D
:10193000C0F38010090700D460B3204600F0AAFD70
:1019400020684069400621D52068143050E8001F07
:1019500021F0400140E80012002AF5D1A06BA8B1A7
:101960006C490165A06BFEF7F8FF002811D0A06B51
:10197000016D01B0BDE8F040084783060FD593061E
:101980000DD52046BDE8F84000F0ABBD2046FFF77E
:101990008EFFF8BD2046FFF78AFF2564F8BD266B51
:1019A0002023012E79D1C60677D5D60675D50868CD
:1019B000486800904869400640D5A16B08684068B7
:1019C0000004000CEAD0A28D8242E7D9E085C86904
:1019D000B0F5807F2DD020680C3050E8001F21F436
:1019E000807140E80012002AF5D12068143050E8D8
:1019F000001F21F0010140E80012002AF5D1206803
:101A0000143050E8001F21F0400140E80012002A85
:101A1000F5D184F83E30256320680C3050E8001F73
:101A200021F0100140E80012002AF5D1A06BFEF76A
:101A30004BFFA08DE18D401A81B229E0A08DE18D90
:101A4000401A81B2E08D0028A8D00029A6D02068D5
:101A50000C3050E8002F22F4907240E80026002E4F
:101A6000F5D12068143050E8002F22F0010240E840
:101A70000026002EF5D184F83E30256320680C3016
:101A800050E8002F22F0100240E80023002BF5D18F
:101A90002046FFF70BFFF8BDFFE705062BD515061F
:101AA00029D594F83D002128F5D1A068B0F5805FD4
:101AB00001D12069B0B1206A411C216221680078FF
:101AC0004860E08C401E0004000CE084E3D12068F4
:101AD000C16821F08001C1602068C16841F0400107
:101AE000C160D8E7206A0088C0F308004860206A17
:101AF000801C2062E5E74006CDD55006CBD5CA68EC
:101B0000204622F04002CA6084F83D3000F021F9FE
:101B1000C1E700008524000870B5040004D094F8E3
:101B20003D00002510B106E0012070BD84F83C5056
:101B3000204600F023F8242084F83D002068C16886
:101B400021F40051C160204600F02CFD206801699D
:101B500021F4904101612068416921F02A0141612D
:101B60002068C16841F40051C1602564202084F8D8
:101B70003D0084F83E00002070BD0000F0B587B045
:101B8000044614216846FEF70EFC2149206888426D
:101B90003BD120480024016841F400210160006825
:101BA00000F4002005901B481038016841F008013E
:101BB0000160016801F008010591016841F004012C
:101BC00001600068022500F0040005904FF4806079
:101BD000CDE9000502AA0326082782E8D00069465D
:101BE0000D48FEF7DFFEA802CDE9000502AA69460E
:101BF00082E8D0000948FEF7D5FE002211463420C5
:101C0000FFF732F83420FFF721F807B0F0BD0000ED
:101C1000004C004040380240000C024000080240E6
:101C200090F83E30202B0ED159B152B190F83C3093
:101C3000012B08D0012380F83C300023036300F01F
:101C400041BD0120704702207047000070B5134865
:101C5000051F0178441C28782154401CC0B228700C
:101C6000062819D10020287020786179884213D184
:101C70007E2811D10421204600F0B8FD2179884248
:101C80000AD10120E870697801B96870E07802280B
:101C900002D1A878401CA87070BD0000050000208B
:101CA0002DE9F843044690F83D001F4616460D46C0
:101CB00020284CD1C5B1BEB194F83C00012846D0D3
:101CC000012084F83C004FF00008C4F84080212037
:101CD00084F83D00FEF75AFFA6848146E684A0689A
:101CE000B0F5805F03D004E00120BDE8F8832069EF
:101CF00028B12E465FF0000584F83C800EE00026F7
:101D0000FAE78021204600F0F8FCA0B9AEB116F841
:101D1000010B21684860E08C401EE084E08C4B465B
:101D20004FF0000200970028EBD14FF04001204611
:101D300000F0E3FC30B10320D7E735F8020BC0F325
:101D40000800E6E7202084F83D000020CDE70220CF
:101D5000CBE77047FEE700007FB5002414480094ED
:101D60000194029411490394C0E900148460046151
:101D7000047680F820400F49C0E90A140125C561A6
:101D8000C46080F830404561FEF7DEFC08B172B6F1
:101D9000FEE7CDE90045694605480294FEF722FCBE
:101DA000002801D072B6FEE77FBD00000020014090
:101DB000504E00200100000F2DE9F04387B01421A0
:101DC0006846FEF7F0FA49480024016841F0040132
:101DD0000160016801F004010591016841F0800192
:101DE0000160016801F080010591016841F0010185
:101DF0000160016801F001010591016841F00201F3
:101E00000160016801F002010591016841F00801DB
:101E10000160016801F008010591016841F040018D
:101E200001600068DFF8C89000F0400005900022D3
:101E30006C214846FEF7A4FE2E4F44F28106002294
:101E400031463846FEF79CFEDFF8AC800022402188
:101E50004046FEF795FE4FF4005000904FF4881076
:101E6000CDE9010469462548FEF79CFD6C200090F1
:101E70000125CDE90154694648460394FEF792FDD9
:101E80000096CDE90154694638460394FEF78AFD71
:101E90004FF440700226CDE9000603270294072084
:101EA000CDE9037069461648FEF77CFD402000909E
:101EB000CDE90154694640460394FEF773FD802046
:101EC000CDE90004694640460294FEF76BFD4FF4ED
:101ED000E850CDE9000602940A20CDE90370694676
:101EE0004846FEF75FFD07B0BDE8F083303802409A
:101EF00000000240000402400018024000080240B6
:101F0000000C024010B586B00024164800940194DD
:101F10000294039404944FF080410594016047219A
:101F2000C0E90114611EC0E903148461FFF7D6F90A
:101F300008B172B6FEE74FF4805000906946094838
:101F4000FFF76CFA08B172B6FEE7049404A90548DD
:101F50000594FFF77BF9002801D072B6FEE706B0C2
:101F600010BD0000984E002010B58EB000240794DC
:101F7000089409940A940B941C2168460C94FEF76B
:101F800012FA1F481D4901604721C0E9011444F6B7
:101F90001F61C0E903148461FFF7A0F908B172B6AC
:101FA000FEE74FF48050079007A91548FFF736FA6F
:101FB00008B172B6FEE71248FFF7E3FB08B172B64C
:101FC000FEE70B940BA90E480C94FFF73FF908B1FC
:101FD00072B6FEE7602000904FF47A70CDE90104FC
:101FE0000822694606480494FFF765FB08B172B6FB
:101FF000FEE70348FFF734FB0EB010BD00040040BD
:10200000E04E002010B586B00024174800940194DB
:1020100002940394049413490594016043F63F012C
:10202000C0E90114611EC0E903148461FFF756F989
:1020300008B172B6FEE74FF48050009069460A4836
:10204000FFF7ECF908B172B6FEE7049404A906485C
:102050000594FFF7FBF8002801D072B6FEE706B042
:1020600010BD0000000C0040284F0020FEE7FEE7F6
:10207000704700002DE9FF4F002485B09B461746AE
:102080008A462546164EDFF85C80DFF85C9013E048
:10209000386845620BE000BF18F80410059800F09E
:1020A000CBFC19F804200321504600F0A3FE386849
:1020B000406A2828F0D9641C3088401E8442E7DB3F
:1020C0000A483580002305700095019502951A464F
:1020D00069465846039500F04BFC09B0BDE8F08F07
:1020E0000C000020A8130020B83A002003000020B4
:1020F0007047FEF751BD000030B593B034216846FB
:10210000FEF751F914210DA8FEF74DF91C480025E2
:10211000016841F080510160006800F08050129029
:102120001848016841F4404101600068022400F44D
:1021300040401290012003901020049000940694D7
:102140000820CDE907504820CDE909040B946846E2
:102150000C94FEF7A5FE08B172B6FEE70DA90F209C
:1021600081E831004FF48050CDE9100502210DA81F
:10217000FEF7ACFD002801D072B6FEE713B030BD0B
:1021800040380240007000400248016841F470018C
:102190000160704788ED00E00148FFF7AEB900002C
:1021A000984E0020F0B50268254C264D264E274F4C
:1021B000274B4FF0804CA04209D0604507D0A84281
:1021C00005D0B04203D0B84201D0984204D122F0E9
:1021D000700E4A6842EA0E02A0421BD0604519D038
:1021E000A84217D0B04215D0B84213D0984211D0AF
:1021F000184DA8420ED0184DA8420BD0174DA8423A
:1022000008D0174DA84205D0164DA84202D0164D51
:10221000A84203D122F44075CA682A434D6922F0CE
:1022200080022A4302608A68C2620A688262A0420F
:1022300001D0984201D10969016301214161F0BDDA
:10224000000001400004004000080040000C004075
:1022500000040140004001400044014000480140AA
:1022600000180040001C00400020004010B501F0A4
:102270001F030121046A99408C430462016A9A4059
:102280001143016210BD10B5846842EA032224F4B0
:102290007F440A432243826010BD826822F07002AC
:1022A0000A4342F00701816070470000F0B5026AFE
:1022B00022F001020262036A42688469124E24F02D
:1022C00073050C682C4323F002058B682B430D4DDE
:1022D000A84201D0B04205D123F00807CB683B43A8
:1022E00023F00403A84201D0B04205D14D6922F485
:1022F000407215438A692A43426084614968416398
:102300000362F0BD0000014000040140F0B5026A24
:1023100022F010020262026A436884690D6824F4A4
:10232000E64444EA05248D6822F0200242EA0512C0
:102330000F4D104EA84201D0B04206D1CF6822F016
:10234000800242EA071222F04002A84201D0B042C5
:1023500007D14D6923F4406343EA85038D6943EA5D
:10236000850343608461496881630262F0BD0000B7
:102370000000014000040140F0B5026A22F48072BE
:102380000262026A4368C46922F4007224F0730591
:102390000C68124E2C438D6842EA05220E4DA8426D
:1023A00001D0B04206D1CF6822F4006242EA07228F
:1023B00022F48062A84201D0B04207D14D6923F4D3
:1023C000405343EA05138D6943EA05134360C46132
:1023D0004968C1630262F0BD000001400004014091
:1023E00030B5026A22F480520262046A4268C3690C
:1023F0000D6823F4E64343EA05238D6824F4005472
:1024000044EA0534084DA84202D0084DA84204D140
:102410004D6922F4804242EA85124260C3614968F4
:102420000164046230BD000000000140000401406E
:1024300010B5036A046A24F001040462846924F07C
:10244000F00444EA021423F00A020A43846102629F
:1024500010BD10B5036A23F0100303628369046A98
:1024600023F4704343EA023224F0A00343EA01114B
:102470008261016210BD00000148FFF719BA000037
:10248000704F002010B5806B0021C185C184FFF71B
:102490000EFA10BD01680C3151E8002F22F4907241
:1024A00041E80023002BF5D10168143151E8002FD9
:1024B00022F0010241E80023002BF5D1016B012934
:1024C00009D101680C3151E8002F22F0100241E8D7
:1024D0000023002BF5D1202180F83E10002101635C
:1024E000704708B590F83E10222901D0022008BD9F
:1024F00082684FF480539A4201D1016921B1816A07
:102500009A421BD04AB10AE00268816A5268C2F35B
:1025100008020A80816A891C08E0026972B10268B7
:10252000526802F07F020A70816A491C8162C18D83
:10253000491E0904090CC18503D019E002685268DC
:10254000F1E70168CA6822F02002CA600168CA681F
:1025500022F48072CA6001684A6922F001024A616D
:10256000202180F83E10016B012903D0FFF76EFB9C
:10257000002008BD0021016301680C3151E8002FE3
:1025800022F0100241E80023002BF5D101680A680F
:10259000D20602D50A6849680091818DFFF786F955
:1025A000E6E7000070B5044600680169E26821F4BE
:1025B0004051114301612169A068E26908436169E2
:1025C000114308432168CA6849F20C639A430243E5
:1025D000CA6020684169A26921F4407111434161D8
:1025E00034492068884208D03349884205D03349AD
:1025F000884202D03249884202D1FEF711FC01E044
:10260000FEF7FEFBE2690023192164253226B2F5AC
:10261000004F626828D0A0FB0101930F9200FDF7E4
:102620004BFE0146B0FBF5F06FF01802504301EB92
:10263000800006EB0010B0FBF5F000F0F002B1FBFB
:10264000F5F002EB0012B1FBF5F06FF01803584300
:1026500001EB800006EB0010B0FBF5F000F00F007E
:1026600021681044886070BDA0FB010192185B4195
:10267000FDF722FE0146B0FBF5F00201B1FBF5F0DB
:102680006FF01803584301EB800006EBC000B0FB6D
:10269000F5F000F0F80002EB4002B1FBF5F0584312
:1026A00001EB800006EBC000B0FBF5F000F0070086
:1026B000D6E700000010014000140140001801405E
:1026C000001C014081628285C285002101642222B2
:1026D00080F83E2080F83C100168CA6842F480729D
:1026E000CA6001684A6942F001024A610068C16833
:1026F00041F02001C160002070472DE9F04198466B
:1027000017460E460446069D27E0681C25D02DB1CD
:10271000FEF73CFAA0EB0800A8421ED920680C3056
:1027200050E8001F21F4D07140E80012002AF5D1D2
:102730002068143050E8001F21F0010140E8001229
:10274000002AF5D1202084F83D0084F83E000020C6
:1027500084F83C000320BDE8F0812068006836EA78
:10276000000004D00020B842CFD00020F3E70120C1
:10277000F9E7FEE710B5054B034C1A88A05404484E
:102780008154521C1A8010BD200000200C00002033
:10279000302700200907090E002804DB00F1E020A3
:1027A00080F80014704700F00F0000F1E02080F87E
:1027B000141D704710B500F03EFC9FED081B53EC54
:1027C000112B00F04BFC9FED071B53EC112B00F07D
:1027D0005DFB00F003FC80B210BD000008AC1C5A89
:1027E000643BCFBF0000000000409F4030B503466F
:1027F000FF2031240FE000BF13F8012B50400022CE
:10280000050602D584EA400000E04000521CD2B226
:10281000C0B2082AF4D3491EC9B2EDD230BD0000BF
:10282000FEF7C2F9FFF768FCFFF7C6FAFFF794FA64
:10283000FFF768FBFFF798FB364835490024016035
:102840004FF49641C0E901140C21C460C0E9044171
:102850008461C461FFF760F908B172B6FEE7FFF763
:10286000D1FB2D48FDF7CAFF2A4808219038FEF712
:10287000B7FF29484830FEF795FD26484838FEF74F
:1028800091FD264D05E025490122091D2148FFF74C
:10289000C7F968780128F6D16420FEF771F81E495F
:1028A00000231A4610391B4800F062F81948EC70F2
:1028B000483800684462194E761D18490122091DE6
:1028C0001448FFF7ADF9E8780128F6D1A878022876
:1028D00010D11048903800F0C7F800F0BDFAFDF7AD
:1028E0005DFE0C4BA3F14802A2F1900101F14800FA
:1028F000FFF7C0FB07487178903800F09DF8064854
:10290000B2780321483000F075FAEC70D5E700008A
:10291000004C0040704F0020504E0020010000206D
:102920002DE9F04705460E462968002048620D4C07
:102930000D4FDFF838904FF001080CE0207850B9C7
:102940003878012805D199F8021099F80100FFF7AD
:1029500011FF84F800802868406AB042EED3BDE8D9
:10296000F087000000000020030000200600002087
:102970002DE9FC411E467E2517460C460123804664
:102980008DF800508DF804501A466946FFF788F913
:1029900000EE107AD4ED010A94ED001AB8EE400A68
:1029A00001231A46694641EE000ABCEEE00A10EE29
:1029B000100A8DF800008DF805004046FFF770F909
:1029C00000EE106AD4ED030A94ED021AB8EE400A44
:1029D00001231A46694641EE000ABCEEE00A10EEF9
:1029E000100A8DF800008DF806004046FFF758F9F0
:1029F00000208DF800008DF8070001231A46694673
:102A00004046FFF74DF9042101A8FFF7EFFE8DF8CE
:102A1000000001231A4669464046FFF741F90123A9
:102A20008DF800501A4669464046FFF739F91820DC
:102A3000FDF7A6FFBDE8FC8110B50446084600F08E
:102A4000FAFA9FED071B53EC112B00F007FB00F087
:102A5000C5FA80B2FFF7AEFE2168C86310BD000062
:102A60008FC2F5285C0F3040006840F2DC51C16332
:102A70007047A0F60102F32A02D9F432F32A01D8F2
:102A8000002109E040F6F402904203D840F20C72B3
:102A9000904201D84FF47A71084670472DE9F04111
:102AA0000D46804666490020164608700446C1E07F
:102AB000644F012240213846FEF762F800222021AF
:102AC0003846FEF75DF8002208213846FEF758F830
:102AD000002204213846FEF753F831464046FFF7FE
:102AE0001FFF012240213846FEF74AF8012220212B
:102AF0003846FEF745F8002208213846FEF740F830
:102B0000002204213846FEF73BF831464046FFF7E5
:102B100007FF002240213846FEF732F8012220212B
:102B20003846FEF72DF8002208213846FEF728F82F
:102B3000002204213846FEF723F831464046FFF7CD
:102B4000EFFE002240213846FEF71AF8012220212C
:102B50003846FEF715F8012208213846FEF710F82E
:102B6000002204213846FEF70BF831464046FFF7B5
:102B7000D7FE002240213846FEF702F8002220212D
:102B80003846FDF7FDFF012208213846FDF7F8FF22
:102B9000002204213846FDF7F3FF31464046FFF797
:102BA000BFFE002240213846FDF7EAFF0022202127
:102BB0003846FDF7E5FF012208213846FDF7E0FF22
:102BC000012204213846FDF7DBFF31464046FFF77E
:102BD000A7FE002240213846FDF7D2FF0022202127
:102BE0003846FDF7CDFF002208213846FDF7C8FF23
:102BF000012204213846FDF7C3FF31464046FFF766
:102C00008FFE012240213846FDF7BAFF0022202125
:102C10003846FDF7B5FF002208213846FDF7B0FF22
:102C2000012204213846FDF7ABFF31464046FFF74D
:102C300077FE641CAC42FFF63BAFBDE8F0810000BC
:102C400000000020000002402DE9F0410D468046C2
:102C500066490020164608700446C1E0644F012210
:102C600040213846FDF78CFF002220213846FDF731
:102C700087FF002208213846FDF782FF0122042148
:102C80003846FDF77DFF31464046FFF749FE0022FA
:102C900040213846FDF774FF002220213846FDF719
:102CA0006FFF002208213846FDF76AFF0122042148
:102CB0003846FDF765FF31464046FFF731FE0022FA
:102CC00040213846FDF75CFF002220213846FDF701
:102CD00057FF012208213846FDF752FF0122042147
:102CE0003846FDF74DFF31464046FFF719FE0022FA
:102CF00040213846FDF744FF002220213846FDF7E9
:102D00003FFF012208213846FDF73AFF0022042147
:102D10003846FDF735FF31464046FFF701FE0022F9
:102D200040213846FDF72CFF012220213846FDF7CF
:102D300027FF012208213846FDF722FF0022042147
:102D40003846FDF71DFF31464046FFF7E9FD0022FA
:102D500040213846FDF714FF012220213846FDF7B7
:102D60000FFF002208213846FDF70AFF0022042148
:102D70003846FDF705FF31464046FFF7D1FD0122F9
:102D800040213846FDF7FCFE012220213846FDF7A0
:102D9000F7FE002208213846FDF7F2FE002204214A
:102DA0003846FDF7EDFE31464046FFF7B9FD0122FA
:102DB00040213846FDF7E4FE002220213846FDF789
:102DC000DFFE002208213846FDF7DAFE002204214A
:102DD0003846FDF7D5FE31464046FFF7A1FD641C9D
:102DE000AC42FFF63BAFBDE8F081000000000020E0
:102DF0000000024070B505460C46104600F01BF975
:102E00009FED131B53EC112B00F028F900F0E6F8AE
:102E100083B21846FFF72DFE020009D040F6F400F9
:102E2000834209D921462846BDE87040FFF736BEE7
:102E3000BDE8704000F010B840F20C70834205D835
:102E400021462846BDE87040FFF7FEBE70BD000079
:102E50008FC2F5285C0F304010B50B4C002240218A
:102E60002046FDF78DFE002220212046FDF788FE3A
:102E7000002208212046FDF783FE20460022BDE8FF
:102E800010400421FDF77CBE0000024010B591EA1D
:102E9000030F48BF83F0004300F1E681841A71EB11
:102EA000030C05D2121943EB0C03001B61EB0C0160
:102EB000DFF824E14FEA1154A4EB135C1EEA430F40
:102EC00018BF9EEA445F73D023EA0E03DCF1200EA4
:102ED00021EA045143F4801332D322FA0CFE10EBA2
:102EE0000E0023FA0CFE41EB0E01CCF1200E03FA8A
:102EF0000EFE10EB0E0051F10001B1F5801FCCF178
:102F0000200E32D201EB045112FA0EF2BDE810404D
:102F100058BF7047401C38BF5FEA420218BF704775
:102F2000002814BF20F0010041F100014FEA4103E5
:102F300013F5001F38BF7047A1F1C04100F086B9FA
:102F4000012A43EB0302ACF1200CDCF11F0E32BF6F
:102F50004FF0000E23FA0CF310EB030041EB045189
:102F6000B4EB115FD0D0A1EB045101F580114908F9
:102F70005FEA300001EB04510ED350F1000038BF7E
:102F800012FA0EFE08D1BDE81040C9E7401C38BF58
:102F90005FEA4202CAD1C3E7BDE810404FEA4103ED
:102FA00013F5001F38BF7047A1F1C04100F04EB9C2
:102FB0009EEA445F08D011EA5E0FBDE8104004BFEE
:102FC00001F0004100207047BDE8104070B500F0EE
:102FD000EFF800BF64FBBE3E0000E0FF4FEA115374
:102FE000A3F58063D3F11E03A8BFD3F1200C08DB47
:102FF0004FF0004242EAC12252EA505232FA03F044
:10300000704709420BD4102BC4BF0020704703F552
:10301000787CBCF1FF3F05D04FF0FF3070474FF098
:103020000000704770B500F0C3F800BF49922480DB
:1030300000207047F0E7B0FA80F310FA03F10AD0ED
:10304000C3F11D0303F580634FEA41504FEA035279
:1030500002EBD12170474FF000007047DFF848C104
:1030600070B51CEA111E1EBF1CEA13159EEA0C0F58
:1030700095EA0C0F00F06F8081EA030423EA4C13F9
:103080004EEAD47E21EA4C1141F4801143F48013BE
:10309000AE44A1FB024CA0FB0365AEF17F7E361966
:1030A00055EB0C05A1FB034C4CF10003A0FB021CEB
:1030B00016EB0C06654153F10003094218BF46F0B8
:1030C000010613F4007F0BD14FEA03314FEA0530BC
:1030D000340341EA155140EA16506FF003020AE04A
:1030E0004FEAC3214FEAC520F40241EA555140EAB4
:1030F00056506FF0020202EB2E4201EB025585EAB8
:10310000CE710AD05FEA440C18BF24F0004450F19D
:10311000000041F1000120EAD47040F2FE7C6245DB
:1031200000D270BDA84214BF4FF080444FF040441D
:10313000002E08BF0024BEF1806FA8BFA1F1C041DE
:10314000BDE8704080F282804FF0000001F1C04184
:1031500001F0004170479EEA0C0F0CEA131518BFEE
:1031600095EA0C0F06D04FF0000081EA030E0EF036
:10317000004170BD00F01CF88900013E00F007B866
:1031800000F009B84FEA430C5FEA5C5C08D081EAC2
:10319000030100F05BB84FEA410C5FEA5C5CF6D1DA
:1031A0004FF00000014970470000FF070000F87F62
:1031B0000EF1020E2EF0030E5EF8046B364205D4BB
:1031C000012A43EB030515F5001F12D8012841EB36
:1031D000010C1CF5001F0CD80ED14FEAD17C15F55F
:1031E000001F0CEB4C0C0CF1020C08BF4CEBD37C19
:1031F00004E04FF0080C01E04FEAD37C0CEB4C05E7
:1032000026FA05F606F00706B6F1040C06D20EEB18
:10321000860CBDE870404CF0010C6047DFE80CF014
:10322000090B02024FF000414FF00000A1F5002110
:1032300070BD19461046012851EB010418BFD4F5A2
:10324000001484BF002001F0004170BD0808A0F503
:1032500000114FEA3101704710B591EA030F48BFE2
:1032600083F000433FF51AAE841A71EB030C07D2CA
:1032700012198CF0004C43EB0C03001B61EB0C01AA
:10328000DFF8A4E14FEA1154A4EB135C1EEA430FEC
:1032900018BF9EEA445F00F0B08023EA6E035242FA
:1032A00021EA0451C3EB6E0338BF5B1EDCF1200E34
:1032B00025D322FA0CFE10EB0E0043FA0CFE41EB74
:1032C0000E01CCF1200E03FA0EFE10EB0E0051F1B0
:1032D0000001CCF1200E29D412FA0EF201EB0451B8
:1032E000BDE8104058BF7047401C1CBFB2F1004FF2
:1032F000704700280CBF491C20F00100704712EBFA
:10330000020E43EB030218BF4FF0010E4EEA4202D9
:10331000ACF1200CDCF11E0E54D943FA0CFE10EB7C
:103320000E0051F1FF31CCF11E0ED5D50EF1010E7C
:1033300012FA0EFE404141EB010101EB445C5FEAF1
:103340005C5C10D910EBDE7001EB045138BFBEF1AC
:10335000004FBDE8104018BF704700280CBF491C43
:1033600020F00100704730D24FEAD42C11F5001143
:1033700024F400641BD0B1FA81F20B3AA41AA41E03
:10338000D2F12003914030FA03F31943904001EB4E
:10339000CC71002C01EB0451BDE81040A8BF704770
:1033A00001F1C0414FF0000001F000417047B0FA58
:1033B00080F310FA03F100D110BDE41A173C480560
:1033C000C90AE4E701EB045110BD491001EB0451B7
:1033D000BDE810404FEA300002E04FF000017047B6
:1033E0004A0008BF0042F8D0B2F5001F28BF70475E
:1033F00001F000414FF0000070479EEA445F07D0A3
:1034000011EA5E0FBDE8104004BF002100207047A4
:10341000BDE8104070B5FFF7CBFE00BF40DFF63EC1
:1034200083F00041104670470000E0FF4FF040700D
:10343000E1EE100A704700000000000000000102E9
:10344000030406070809000000000102030400004D
:103450007034000800000020200000001402000862
:103460009034000820000020F855000030020008C9
:10347000000000000000000000000000000000004C
:103480000100000010000000000000000024F40013
:04000005080001D915
:00000001FF
