:020000040800F2
:10000000C00800204D020008EB2500085D1F000815
:10001000E9250008F90500086B2900080000000028
:10002000000000000000000000000000EF250008B4
:10003000B906000800000000ED250008F1250008C1
:1000400067020008670200086702000867020008EC
:1000500067020008670200086702000867020008DC
:1000600067020008670200086702000867020008CC
:1000700067020008670200086702000867020008BC
:1000800067020008670200086702000867020008AC
:10009000670200086702000867020008670200089C
:1000A000670200086702000867020008670200088C
:1000B000670200086702000867020008670200087C
:1000C000670200086702000867020008670200086C
:1000D000670200086702000867020008670200085C
:1000E000670200086702000867020008670200084C
:1000F000670200086702000867020008670200083C
:10010000670200086702000867020008670200082B
:10011000670200086702000867020008670200081B
:10012000FD050008670200080906000867020008CC
:1001300067020008670200086702000867020008FB
:1001400067020008670200086702000867020008EB
:1001500067020008670200086702000867020008DB
:1001600067020008670200086702000867020008CB
:10017000670200086702000867020008000000002C
:1001800067020008670200086702000867020008AB
:10019000670200086702000867020008670200089B
:1001A00067020008670200086702000800F002F812
:1001B00000F03CF80AA090E8000C82448344AAF1C5
:1001C0000107DA4501D100F031F8AFF2090EBAE8C3
:1001D0000F0013F0010F18BFFB1A43F0010318477B
:1001E0005434000074340000103A24BF78C878C139
:1001F000FAD8520724BF30C830C144BF04680C602D
:10020000704700000023002400250026103A28BF74
:1002100078C1FBD8520728BF30C148BF0B60704778
:100220001FB503F0F1F91FBD10B510BD00F0CFF8F8
:100230001146FFF7F5FF02F0AFFC00F0EDF803B454
:10024000FFF7F2FF03BC00F0F5F800000948804713
:1002500009480047FEE7FEE7FEE7FEE7FEE7FEE7A8
:10026000FEE7FEE7FEE7FEE704480549054A064BC0
:100270007047000089260008AD010008C002002078
:10028000C0080020C0040020C004002053EA020C73
:1002900000F069802DE9F04B4FF00006002B1FBFE6
:1002A000B3FA83F503FA05F424FA05F65E4012BFAB
:1002B0001643B2FA82F502FA05F4C5F120051EBF15
:1002C00022FA05FC44EA0C04203556EA044C4FEAB5
:1002D000144418BF641C4FF000084FF0000990420E
:1002E00071EB030C39D3002919BFB1FA81F701FA78
:1002F00007F6B0FA80F700FA07F6C7F120071EBF2D
:1003000020FA07FC46EA0C062037B6FBF4FCA7EB04
:100310000507103F07F01F0BCBF120060CFA0BFB73
:100320002CFA06F644BFB3460026202FA4BF5E4633
:100330004FF0000B5BEA060C08BF4FF0010B19EB06
:100340000B09ABFB027C48EB0608C01B06FB02CC8A
:100350000BFB03CC71EB0C01C1E70B460246414697
:100360004846BDE8F08B13B54FF000004FF0000198
:10037000AFF30080BDE81C4070474FF0000200B5AD
:10038000134694469646203922BFA0E80C50A0E8B8
:100390000C50B1F12001BFF4F7AF090728BFA0E866
:1003A0000C5048BF0CC05DF804EB890028BF40F832
:1003B000042B08BF704748BF20F8022B11F0804F74
:1003C00018BF00F8012B704770477047704775469B
:1003D00000F02CF8AE4605006946534620F00700B1
:1003E000854618B020B5FFF73FFFBDE820404FF02D
:1003F00000064FF000074FF000084FF0000B21F00F
:100400000701AC46ACE8C009ACE8C009ACE8C009DB
:10041000ACE8C0098D46704710B50446AFF30080C4
:100420002046BDE81040FFF70ABF000000487047B3
:100430005C02002001491820ABBEFEE72600020046
:10044000704710B50146806B026C12F0500F05D05A
:10045000026CD20626D500F0E7F910BD016C41F41C
:100460000071016401688A6812F0405F17D1027E52
:10047000AAB9CA6A12F4700F02D08A6852050ED463
:100480004A6822F020024A60016C21F48071016404
:10049000016CC90403D4016C41F00101016400F056
:1004A000C1F910BD806BC26CBDE810400846104712
:1004B00010B5806B40210164416C41F0040141643E
:1004C00000F0B2F910BD10B5806B00F0ACF910BDB2
:1004D000464910B54A6822F440324A604A68436887
:1004E0001A434A6001684A6822F480724A600168CF
:1004F0004A68036942EA03224A6001684A6822F0B6
:1005000040724A6001684A6883681A434A60016819
:100510008A6822F400628A6001688A68C3681A43A4
:100520008A60816A6FF07062D14201688A6822F045
:1005300070628A6001688A680CD0836A1A438A6094
:1005400001688A6822F040528A6001688A68C36A3A
:100550001A4301E022F040528A6001688A6822F062
:1005600002028A6001688A68037E42EA43028A6066
:1005700090F82010002901684A680FD042F4006208
:100580004A6001684A6822F460424A6001684A6829
:10059000174C436A04EB43331A4301E022F4006230
:1005A0004A600168CA6A22F47002CA620168CA6AB3
:1005B000838B104C04EB03531A43CA6201688A68A8
:1005C00022F400728A6001688A6890F8303042EA4A
:1005D00043228A6001688A6822F480628A60016826
:1005E0008A68406942EA8020886010BD002301408B
:1005F00000E0FFFF0000F0FFFEE70000014800F010
:100600006BBA00009C010020014800F065BA0000B0
:10061000FC01002001681823CAB2103AB2FBF3F2C1
:10062000054B6FF30901032A9B5CC36500D9091DC3
:1006300081650846704700001236000810B5014673
:1006400000208B698A6A4FF0C07453B1B3F5005F24
:1006500015D072B1012A0CD0022A0AD0032A09D17E
:1006600004E01AB1012A06D0022A03D1C96AC901DD
:1006700000D5012010BDC96AA142FAD010BD002AE0
:10068000F7D0012AF2D0022AF3D0032AF3D010BD0A
:1006900030B50468256825F480252560046863600A
:1006A0008368402B036803D099600068C26030BD46
:1006B0009A600068C16030BD704772B6FEE7000006
:1006C00078B50024009490F83C20012A19D001222A
:1006D00080F83C200A6807230568092A13D9EE68C8
:1006E0000A3A02EB420293409E43EE600B788A681E
:1006F0000A3B03EB43039A400368DD682A43DA6050
:1007000010E0022078BD2E6902EB420293409E4326
:100710002E610B788A6803EB43039A4003681D69D6
:100720002A431A614A681F23072A13D205686E6B91
:10073000521E02EB820293409E436E630A8893B27C
:100740000A79521E02EB820293400268556B2B43DA
:10075000536327E005680D2A12D22E6BD21F02EBDD
:10076000820293409E432E630B790A88DB1F92B26C
:1007700003EB83039A4003681D6B2A431A6311E05D
:10078000EE6A0D3A02EB820293409E43EE620B79D1
:100790000A880D3B92B203EB83039A400368DD6A3B
:1007A0002A43DA621B4B0568194A9D420AD10D683B
:1007B000122D07D1556825F400055560556845F49C
:1007C0008005556005689D421DD1134D0B68AB42F5
:1007D00001D0112B17D1536823F480035360536861
:1007E00043F4000353600968A9420CD10B490C4A39
:1007F0000968B1FBF2F101EB8101490000E0491EFB
:1008000000910029FBD180F83C40002078BD000019
:1008100000230140002001401200001014000020BD
:1008200040420F0070477047704770B504004FF0AA
:10083000000503D0206C002610B107E0012070BD38
:10084000204600F01DF8666484F83C60206CC00609
:1008500010D4206C20F4885040F002002064204620
:10086000FFF736FE6664206C20F0020040F00100C5
:10087000206400E0012584F83C60284670BD00003B
:100880002DE9F04786B0064614216846FFF775FD4E
:100890003648DFF8D4C014383468002533490323C0
:1008A000334A07154FF400684FF400594FF4807A2B
:1008B000644528D10C6844F480740C60096801F424
:1008C00080710591016841F001010160006869468D
:1008D00000F00100059001208DE82900104600F08D
:1008E0007FFA254C234804F10C0CC4E90005A560EF
:1008F0008CE8A0072562204665622EE0B463A663FB
:1009000006B0BDE8F087DFF874C06445F8D10C6824
:1009100044F400740C60096801F4007105910168E9
:1009200041F0010101600068694600F00100059096
:1009300010208DE82900104600F052FA104C0D48A6
:1009400004F10C0C303020604FF00070C4E9010558
:100950008CE8A00725622046656200F08DF900282A
:10096000CCD0FFF7AAFEC9E700200140443802407E
:1009700000000240106402409C0100200021014060
:10098000FC010020F8B5044600200E46009094F8C3
:100990003C10012907D0012184F83C1021688B68A4
:1009A000DB0702D011E00220F8BD8B6843F00103A1
:1009B0008B604049404B0968B1FBF3F101EB410109
:1009C00000E0491E00910029FBD121688B68DB05FE
:1009D00003D58B6823F480738B6021688B68DB07F9
:1009E0005DD0236C40F20165AB4343F48073236414
:1009F0004968490505D5216C21F4005141F4805125
:100A00002164216CC90404D5616C21F00601616484
:100A100000E0606484F83C00A16B2948274DC8635E
:100A2000A16B28480864A16B2748C86421686FF04F
:100A3000220008602068416841F0806141602068C0
:100A4000816841F4807181602168134632464C31DF
:100A5000A06B00F07BF968681C49C006206806D0CE
:100A6000884224D1816811F0405F13D01FE0884292
:100A7000F8D0174A904203D1D1F80423D206F1D01E
:100A8000144A904213D1D1F8041301F01F01102928
:100A9000E8D30CE0816841F08041816007E0206C80
:100AA00040F010002064606C40F0010060640020A1
:100AB000F8BD00001400002040420F000023014058
:100AC00043040008C7040008B104000800200140E6
:100AD00000210140002201402DE9F84304464FF077
:100AE0000009CDF8009063484FF41651A56D0068D9
:100AF000B0FBF1F72E6894F85C10082000FA01F1C1
:100B000031420FD021680A6852070BD50A6822F0DB
:100B100004020A6094F85C108840A860606D40F0A0
:100B20000100606594F85C104FF0010808FA01F0CC
:100B3000304208D021684969090604D5A860606D73
:100B400040F00200606594F85C1004208840304258
:100B500008D021680968890704D5A860606D40F055
:100B60000400606594F85C1010208840304218D072
:100B700021680968090714D5A8602068016849033D
:100B800004D50068000308D5A16C07E00168C90519
:100B900003D4016821F008010160216C09B12046ED
:100BA000884794F85C1020208840304231D021687A
:100BB0000968C9062DD5A86094F835000528206875
:100BC000016806D0490347D5006800031DD4616C55
:100BD0001CE021F0160101602068416921F08001CC
:100BE0004161206C08B9A06C20B12068016821F037
:100BF0000801016094F85C103F208840A86084F8E8
:100C0000358084F83490216D1FE0E16B09B12046F6
:100C10008847606D00282BD0606DC00714D0052078
:100C200084F835002068016821F001010160009816
:100C3000401C0090B84203D820680068C007F6D175
:100C400084F8358084F83490E16C002910D001B02C
:100C50002046BDE8F04308470168C905D5D40168BE
:100C600021F01001016084F8358084F83490CCE7DD
:100C7000BDE8F883140000202DE9F041044600F09F
:100C8000D3F906465CB1022084F83500002584F8CB
:100C900034502068016821F0010101600DE001205D
:100CA000BDE8F08100F0C0F9801B052805D920209F
:100CB0006065032084F83500F2E720680068C0070B
:100CC000F0D12268116820480140D4E9010318439B
:100CD000D4E903363343184363691843A3691843BF
:100CE000E3691843236A18430843616A042903D15E
:100CF000D4E90B1319430843106020684069666A01
:100D000020F0070130460E43012704280CD1A06AC9
:100D10000643E06A40B12046FFF790FC20B1402036
:100D2000606584F83570BAE7206846612046FFF7B1
:100D300071FC94F85C203F2191408160656584F8E6
:100D400035700020ACE700003F8010F02DE9F04145
:100D50000446866D90F83400002501280DD001204E
:100D600084F8340094F835700020012F07D084F8FF
:100D7000340002252846BDE8F0810220FBE7022767
:100D800084F8357060652046FFF782FC94F85C10AB
:100D90003F208840B0602068016841F01601016082
:100DA000206C20B12068016841F0080101602068D2
:100DB000016841F001010160DCE7000070B5044604
:100DC00000F032F90546601C02D004480078044463
:100DD00000F02AF9401BA042FAD370BD08000020A1
:100DE0002DE9F84FDFF8F8A1002201240AF1040BE5
:100DF00003254FF00F090BF1040E00BF0B6804FA36
:100E000002F63340B34270D10F7907F00307012F88
:100E100001D0022F16D187684FEA420805FA08FC74
:100E200027EA0C07D1F80CC00CFA08FC4CEA070CB6
:100E3000C0F808C04768B7430E79C6F3001696405D
:100E40003E4346600E79F643B6070AD0C7684FEABC
:100E5000420C05FA0CF6B7438E6806FA0CF63E43D0
:100E6000C6600E7906F00306022E10D1D60800EBFC
:100E70008608D8F8206057074FEAD76C09FA0CF7B4
:100E8000BE430F6907FA0CF73743C8F820700668AD
:100E90004FEA420C05FA0CF7BE430F7907F003073F
:100EA00007FA0CF7374307604E6816F4403F1CD032
:100EB0004C4E376847F480473760366822F00307A6
:100EC00006F480460096484E07EB060CDCF80868EE
:100ED00097073F0F09FA07F826EA0806DFF80C81A2
:100EE000404503D14FF0000841E072E0DFF8008197
:100EF000404502D14FF0010839E0DFF8F880404565
:100F000002D14FF0020832E0DFF8EC80404502D118
:100F10004FF003082BE0DFF8E480404502D14FF0AA
:100F2000040824E0DFF8D880404502D14FF00508DE
:100F30001DE0DFF8D080404502D14FF0060816E0F2
:100F4000DFF8C480404502D14FF007080FE0DFF81A
:100F5000BC80404502D14FF0080808E0DFF8B080BF
:100F6000404502D14FF0090801E04FF00A0808FAA5
:100F700007F848EA0608CCF80888DAF8006057460F
:100F8000D1F804C09E435FEACC3C00D51E433E60CE
:100F9000DBF800605F46D1F804C09E435FEA8C3CFA
:100FA00000D51E433E60DEF800607746D1F804C0ED
:100FB0009E435FEACC2C00D51E433E60084F0C37A1
:100FC0003E68D1F804C09E435FEA8C2C00D51E43D6
:100FD0003E60521C102AFFF411AFBDE8F88F0000EC
:100FE000003C014044380240003001400000024013
:100FF0000004024000080240000C024000100240C1
:101000000014024000180240001C02400020024070
:10101000002402400069084000D0012070470AB156
:10102000816170470904FBE7014880687047000050
:101030000800002090F83D20202A01D002207047AF
:10104000242280F83D200268136823F00103136016
:101050000268536A23F0100353620268536A0B4319
:10106000536201680A6842F001020A60202180F898
:101070003D100020704790F83D20202A01D002202A
:101080007047242280F83D200268136823F0010392
:10109000136003685A6A22F00F020A4391B2596240
:1010A00001680A6842F001020A60202180F83D10C0
:1010B0000020704770B5040025D094F83D0000254D
:1010C00020B984F83C50204600F04EF9242084F8E2
:1010D0003D002068016821F001010160206801687D
:1010E00041F4004101602068016821F40041016081
:1010F00000F0A4FA4D4A6168914201D84C4900E0E1
:101100004C49884201D2012070BD4B492368B0FB95
:10111000F1F15E6826F03F060E435E60636893421D
:1011200006D94FF4967359434FF47A73B1FBF3F138
:101130002368491C1E6A26F03F0631431962616824
:10114000914210D84900401EB0FBF1F2521CC2F38C
:101150000B02042A01D2042022E0B0FBF1F0401C73
:10116000C0F30B001CE0A268F2B301EBC10303EB78
:101170000116431EB3FBF6F35B1C43F480431B05CF
:1011800049D092B301EBC10202EB0111401EB0FB4A
:10119000F1F0401CC0F30B0040F4804040F40040EC
:1011A0002168CA694CF6FF739A431043C861D4E9B9
:1011B000071001432068026822F0C0021143016059
:1011C000D4E9030101432068826848F2FF339A435F
:1011D00011438160D4E9050108432168CA6822F0FF
:1011E000FF021043C86001E00EE016E020680168CD
:1011F00041F0010101602564202084F83D00256351
:1012000084F83E50002070BD01EB4106431EB3FB45
:10121000F6F35B1CB3E70120C2E701EB4101401E7E
:10122000B0FBF1F0401CC0F30B00B7E7A086010053
:1012300080841E0000093D0040420F002DE9F84F58
:101240001F4690468A460446DDF82890FFF7ECFEDC
:10125000054694F83D0020287FD1192301224049FA
:101260002046009500F006FF002876D194F83C0057
:10127000012872D0012084F83C0020680168C90769
:1012800003D1016841F0010101602068016821F487
:1012900000610160212084F83D00102084F83E00A8
:1012A00000262664C4F824806785608D20852D483B
:1012B000E0622B464A465146204600F067FE90B950
:1012C000206841698069009036E02A4649462046F8
:1012D00000F04FFF50B1206C042804D12068016851
:1012E00041F4007101600120BDE8F88F606A216857
:1012F00000780861606A401C6062618D491E6185EA
:10130000218D491E89B2218522685369DB435B0721
:101310000BD451B100781061606A401C6062608D2E
:10132000401E6085208D401E20852A464946204665
:1013300000F07AFE0028CED1208D0028C5D154F8C7
:101340003D0B016841F400710160202004F81E0982
:10135000E67766770020C7E7FFE70220C4E70000D2
:10136000020010000000FFFF10B586B004461421F3
:101370006846FFF702F814492068884221D11348D3
:101380000021026842F002020260006800F00200E0
:1013900005904FF4107000901220CDE90101032058
:1013A00003900420049069460948FFF719FD074897
:1013B0001030016841F400110160006800F4001071
:1013C000059006B010BD00000054004030380240C7
:1013D000000402400248816802781144816070472D
:1013E000080000200B4810B5016841F4007101604D
:1013F000016841F480610160016841F4807101601D
:10140000032000F06FF8002000F006F800F024F848
:10141000002010BD003C024070B50D4D04464FF455
:101420007A712878B1FBF0F00A490968B1FBF0F055
:1014300000F0FAFA48B9102C07D200222146501EBB
:1014400000F030F800206C6070BD012070BD00001D
:1014500008000020140000200A4808B5016841F483
:1014600080410160006800F4804000900548001F42
:10147000016841F080510160006800F080500090E8
:1014800008BD000044380240002809DB00F01F02BC
:10149000012191404009800000F1E020C0F80011D6
:1014A00070470000F0B40E4B1B680C46C3F30223D8
:1014B000C3F10705042D00D90425191D072901D200
:1014C000002300E0DB1E012606FA05F1491E21403B
:1014D00099409E40761E16403143F0BC01F046BA5A
:1014E0000CED00E0064900F0070208684FF6FF0324
:1014F000184040EA0220034A104308607047000089
:101500000CED00E00000FA052DE9F0470E4605005D
:1015100065D0DFF81481D8F80000F7B200F00F00B2
:10152000B04207D288F80070D8F8000000F00F0031
:10153000B04254D128683D4C810712D5400703D5ED
:10154000206840F4E05020602878000703D5206828
:1015500040F4604020602068A96820F0F000084353
:1015600020602878C0072DD03049686808390128E4
:1015700012D0022813D0032811D009688907002946
:101580002DDA216821F0030101432160FFF74CFDB2
:10159000814641F2883A0EE009688903EFE709685D
:1015A0008901ECE7FFF740FDA0EB0901514502D9A5
:1015B0000320BDE8F0872068696800F00C00B0EBFC
:1015C000810FEFD1D8F80010404601F00F01B14271
:1015D00007D90770006800F00F00B04201D0012069
:1015E000E7E72878400705D52068E96820F4E0504F
:1015F000084320602878000706D52068296920F470
:10160000604040EAC100206000F028F82168084AE4
:10161000C1F30311515CC8400649086006480068E0
:10162000FFF7FAFE0020C4E7003C02400838024001
:101630001A360008140000200C0000200448054958
:1016400000680968044AC1F38221515CC8407047B0
:1016500014000020083802402A360008154810B54A
:10166000006810F00C02144813D04110042A0FD067
:10167000082A0ED10F4C241F2268236802F03F0273
:101680005B0207D52068C0F38810A0FB010106E0CB
:10169000084610BD2168C1F38811A1FB0001002399
:1016A000FEF7F4FD2168C1F30141491C4900B0FB7C
:1016B000F1F010BD083802400024F4002DE9F84F85
:1016C00004006ED02078DFF84C93C007A9F1040520
:1016D0004AD009F104000168C1F38101012908D051
:1016E0000068C0F3810002280AD1D9F80000400246
:1016F00006D52868800337D560680028E1D033E03C
:101700006068B0F5803F10D0B0F5A02F286810D0E9
:1017100020F480302860286820F4802028606068E9
:10172000A8B1FFF781FC06460DE0286840F4803040
:10173000F4E740F480202860F7E700BFFFF774FC6F
:10174000801B642873D828688003F7D50CE0FFF766
:101750006BFC064605E000BFFFF766FC801B6428B3
:10176000F0D828688003F7D42078DFF8AC828007AF
:101770004FF0000A3ED5A748001D016811F00C0F7C
:1017800008D00068C0F3810002280BD1D9F800000E
:10179000400207D42868800716D5E068012800D1E8
:1017A00012E033E1E068B8B10120C8F80000FFF7AB
:1017B0003BFC064605E000BFFFF736FC801B022815
:1017C000C0D828688007F7D52868216920F0F8007C
:1017D00040EAC10028600DE0C8F800A0FFF724FC33
:1017E000064604E0FFF720FC801B02281FD828686B
:1017F0008007F7D42078000722D5864F8748616993
:10180000703771B101210160FFF70EFC064604E05C
:10181000FFF70AFC801B022809D838688007F7D533
:101820000EE0C0F800A0FFF7FFFB064605E082E0EF
:10183000FFF7FAFB801B02287DD838688007F7D4B1
:101840002078400768D5DFF8CCB100270BF13C0BBE
:10185000DBF80000C0000BD4DBF8001041F0805131
:10186000CBF80010DBF80000012700F0805000905A
:101870006B4E3068C00510D4306840F48070306022
:10188000FFF7D2FB009005E0FFF7CEFB0099401A6E
:10189000022850D83068C005F6D55E4EA0686C3678
:1018A00001280FD00528306810D020F001003060EA
:1018B000306820F004003060A068B8B1FFF7B4FBD6
:1018C00000900FE0306840F00100F4E740F00400C1
:1018D0003060F7E7FFF7A8FB0099411A41F2883022
:1018E000814266D830688007F4D50EE0FFF79CFB94
:1018F000009007E0FFF798FB0099411A41F2883009
:10190000814256D830688007F4D42FB1DBF800103C
:1019100021F08051CBF80010A069C8B33D49091DE2
:101920000968C1F3810102294AD00228504607D034
:10193000C8F8600000E03CE0FFF776FB04463BE0BF
:101940004746C8F86000FFF76FFB064605E000BF9A
:10195000FFF76AFB801B02282BD828688001F7D488
:10196000D4E907010843A16A2E4A490802EB014164
:10197000626A41EA8211084394F82C1040EA01613E
:10198000C9F8001001203866FFF74EFB044606E058
:101990003EE000BFFFF748FB001B022809D828687B
:1019A0008001F7D534E000BFFFF73EFB001B0228A3
:1019B00002D90320BDE8F88F28688001F4D427E01D
:1019C0000128F7D0D9F80000E26900F480019142C3
:1019D0001CD1226A00F03F01914217D147F6C07135
:1019E000626A0140B1EB821F10D1A26A4FF0FF334F
:1019F00000F4403103EB5202B1EB024F06D194F8F0
:101A00002C1000F07060B0EB016F01D00120D1E725
:101A10000020CFE70438024000004742800E4742D2
:101A2000007000400000FFFF10B5401EB0F1807F45
:101A300001D3012010BD4FF0E02460610F21601739
:101A400000F094FF0020A06107202061002010BD5D
:101A500010B590F83C20012A22D0012280F83C20C9
:101A6000CA688C6822F4407222434C6822F4806277
:101A700022430C6822F4006222430C6922F4805253
:101A800022434C6922F400522243C969002322F404
:101A900080420A4301684A6480F83C30002010BD4F
:101AA000022010BD70B590F83C20012A32D00124EC
:101AB00080F83C40022280F83D2003685A689D6807
:101AC00022F070060A6832435A60134B02689A4249
:101AD00014D0B2F1804F11D0104B9A420ED0104B5F
:101AE0009A420BD00F4B9A4208D00F4B9A4205D026
:101AF0000E4B9A4202D00E4B9A4204D1496825F00F
:101B000080031943916080F83D40002180F83C102B
:101B1000084670BD022070BD000001400004004076
:101B200000080040000C004000040140004001405B
:101B30000018004010B5040003D094F83D0010B127
:101B400007E0012010BD002084F83C00204600F092
:101B50001FF8022084F83D00211D206800F09CFD44
:101B6000012084F8460084F83E0084F83F0084F8A1
:101B7000400084F8410084F8420084F8430084F86F
:101B8000440084F8450084F83D00002010BD0000AA
:101B900008B500680949884201D1094804E0B0F15C
:101BA000804F09D10648001F016841F00101016022
:101BB000006800F00100009008BD00000000014036
:101BC0004438024090F83D10012901D001207047AF
:101BD000022180F83D1000681149884214D0B0F10C
:101BE000804F11D00F4988420ED00F4988420BD048
:101BF0000E49884208D00E49884205D00D498842D6
:101C000002D00D49884204D1816801F007010629FC
:101C100003D0016841F0010101600020704700001D
:101C2000000001400004004000080040000C00409B
:101C300000040140004001400018004070B5044617
:101C400090F83C000025012817D0012684F83C605C
:101C5000022084F83D002068826822F0770222F496
:101C60007F4282600868502838D00DDC20284FD091
:101C700005DC90B3102811D14AE0022070BD302855
:101C800046D040280AD13BE060282FD070280DD0E4
:101C9000B0F5805F03D0B0F5005F12D0012584F865
:101CA0003D60002084F83C00284670BDCB68D1E937
:101CB0000121206800F061FD2068816841F0770112
:101CC00009E0CB68D1E90121206800F056FD2068C9
:101CD000816841F480418160E1E719E0CA684968A0
:101CE000206800F01FFE5021206806E0CA6849689D
:101CF000206800F028FE6021206800F048FDCEE753
:101D0000CA684968206800F00DFE40212068F4E7A9
:101D1000226801461046F0E710B586B0044614214B
:101D20006846FEF72AFB0E492068884216D10D4806
:101D30000021026842F010020260006800F010000A
:101D400005904FF4007000900220CDE901010120C0
:101D5000CDE9031069460448FFF742F806B010BD0C
:101D600000000140303802400010024070B50446C7
:101D700090F83C0000260D4601280FD0012084F881
:101D80003C006AB1042A1DD0082A2FD00C2A3FD06B
:101D90000126002084F83C00304670BD022070BD52
:101DA000206800F0FDFC2068816941F00801816134
:101DB0002068816921F004018161206881692A69B4
:101DC000114311E0206800F01BFD2068816941F497
:101DD000006181612068816921F4806181612068EE
:101DE00081692A6941EA02218161D2E7206800F015
:101DF0003DFD2068C16941F00801C1612068C169E9
:101E000021F00401C1612068C1692A69114311E010
:101E1000206800F05FFD2068C16941F40061C16184
:101E20002068C16921F48061C1612068C1692A69A3
:101E300041EA0221C161ACE710B5040003D094F877
:101E40003D0010B107E0012010BD002084F83C00E7
:101E5000204600F01EF8022084F83D00211D206875
:101E600000F01AFC012084F8460084F83E0084F853
:101E70003F0084F8400084F8410084F8420084F870
:101E8000430084F8440084F8450084F83D000020B5
:101E900010BD704710B50446022249B104290ED086
:101EA000082913D094F84100012816D0012010BD54
:101EB00094F83E000128F9D184F83E200FE094F810
:101EC0003F000128F2D184F83F2008E094F8400058
:101ED0000128EBD184F8402001E084F84120012260
:101EE000206800F03DFC16492068164A884201D05F
:101EF000904203D1436C43F400434364206888421A
:101F000013D0B0F1804F10D00F4988420DD00F4947
:101F100088420AD00E49884207D0904205D00D4928
:101F2000884202D00C49884204D1816801F007013F
:101F3000062903D0016841F001010160002010BDB5
:101F4000000001400004014000040040000800407F
:101F5000000C00400040014000180040FEE701680E
:101F60004A69D24352050FD46FF480624A6100215E
:101F700040F8301F202242738173026942F004024C
:101F8000026101730120704700207047F8B50446D4
:101F9000C06A1E460D461746082807D0012805D0FE
:101FA00010F5803F02D0206B122804D12068016810
:101FB00041F480710160134600224FF00111204668
:101FC000009600F057F840B120680068C00502D5BF
:101FD0004FF4007020640320F8BD2069B0F5804FF5
:101FE0000ED00620216800EAD51040F0F00008610C
:101FF00033463A460B49204600F070F878B902E0C3
:1020000005F0FE0000E0E8B22168086105493346AA
:102010003A46891F204600F061F80028DCD00120F4
:10202000F8BD00000800010070B516460D460446D4
:102030000DE02046FFF793FF08B1012070BD681C3A
:1020400005D0FEF7F1FF801BA84207D835B1206804
:102050004069C0434007ECD4002070BD002044F824
:10206000300F20216173A073216941F020012161AB
:102070002073E2E72DE9F0471E4690460D460446E0
:10208000C1F30747DDF8209008E0701C06D0FEF78A
:10209000CBFFA0EB0900B0420FD876B12068012F2A
:1020A00018D0806925EA00000004000C14D000213B
:1020B0004145EAD00020BDE8F087002044F8300F09
:1020C00020216173A073216941F0200121612073F7
:1020D0000120F0E74069E5E70121E9E72DE9F04754
:1020E0009A4691460E46044600254FF02008C1F35B
:1020F000074725E020684069C043400514D42068A4
:10210000016841F40071016021686FF480604861EA
:10211000256384F83D8084F83E50206C40F0040034
:10212000206484F83C501FE0B9F1FF3F08D0FEF76F
:102130007BFFA0EB0A0149450CD8B9F1000F09D08B
:102140002068012F13D0806926EA00000004000CEB
:102150000BD0CFE744F8305F84F80D80A573206979
:1021600040F02000206125730120BDE8F087406920
:10217000EAE770B516460D4604460DE02046FFF727
:10218000EEFE08B1012070BD681C05D0FEF74CFFC3
:10219000801BA84207D835B120684069C0430006BB
:1021A000ECD4002070BD002044F8300F2021617372
:1021B000A073216941F0200121612073E2E7000052
:1021C0007FB50025154800950195029512490395A4
:1021D000016001244FF440310461C0E90115047627
:1021E00080F820500E49C0E90A15C560C46180F826
:1021F00030404461FEF719FB08B172B6FEE70720D4
:102200000095CDE9014069460448FEF759FA0028D7
:1022100001D072B6FEE77FBD00200140180000200B
:102220000100000F1FB50021164800910191029195
:10223000134A0391026001244FF440320461C0E963
:102240000121047680F820100F4AC0E90A21C461F8
:10225000C16080F830404461FEF7E7FA08B172B619
:10226000FEE70420CDE900040620029069460548F7
:10227000FEF726FA002801D072B6FEE71FBD000067
:1022800000210140600000200100000F2DE9F04F07
:1022900087B014216846FEF770F86A480024016888
:1022A00041F010010160016801F010010591016821
:1022B00041F004010160016801F004010591016829
:1022C00041F080010160016801F080010591016821
:1022D00041F001010160016801F00101059101680F
:1022E00041F002010160016801F0020105910168FD
:1022F00041F008010160016801F0080105910168E1
:1023000041F04001016000684F4D00F04000059031
:1023100000223C212846FEF782FE44F2810A002278
:1023200051464A48FEF77BFE002240214848FEF70E
:1023300076FE3C2000900127CDE9017469462846CD
:102340000394FEF74DFD4FF400594FF48810CDF87B
:102350000090CDE90104DFF8FCB069465846FEF76D
:102360003FFD32200225CDE9000502AA03264FF0E9
:102370000B0882E8500169465846FEF731FD862079
:10238000CDE9000502AADFF8D0B082E85001694625
:102390005846FEF725FD28208DE8910069465846ED
:1023A000FEF71EFDCDF800A0CDE90174694627486F
:1023B0000394FEF715FD02AA694682E85001CDE9B3
:1023C00000952248FEF70CFD3002CDE9000502948D
:1023D0000720CDE9036069462048FEF701FD402053
:1023E0000090CDE90174694619480394FEF7F8FCA2
:1023F0008020CDE90004694615480294FEF7F0FC00
:102400004FF4E850CDE9000502940A20CDE90360BD
:1024100069465846FEF7E4FC2802CDE90004694607
:1024200058460294FEF7DCFC4FF42050CDE900053D
:1024300002AA694682E850010548FEF7D1FC07B0C0
:10244000BDE8F08F30380240001002400004024026
:10245000001802400008024000000240000C024048
:10246000134810B5114901601249416000214FF431
:1024700080428160C0E9031241618161C1610162F2
:10248000FEF718FE08B172B6FEE700210848FEF715
:10249000D1FD08B172B6FEE700210548FEF7EBFD5D
:1024A000002801D072B6FEE710BD000000540040C5
:1024B000A8000020A086010010B596B000240F945B
:1024C00010941194129413941C2108A81494FDF7ED
:1024D00054FF20216846FDF750FF29482749016035
:1024E0004721C0E9011444F62061C0E903144461A6
:1024F0008461FFF71FFB08B172B6FEE74FF480500E
:102500000F900FA91E48FFF799FB08B172B6FEE7BE
:102510001B48FFF791FC08B172B6FEE7139413A9AC
:1025200017481494FFF7BEFA08B172B6FEE76020B0
:1025300008904FF47A70CDE909040B940C940D9433
:10254000002208A90E480E94FFF710FC08B172B6DD
:10255000FEE700944FF40050CDE90440029401944A
:102560000394694606480794FFF772FA08B172B6F9
:10257000FEE70348FFF7D0FB16B010BD0000014096
:10258000FC00002010B586B0002416480094019489
:102590000294039404944FF0804105940160472114
:1025A000C0E90114611EC0E903148461FFF7C2FA97
:1025B00008B172B6FEE74FF48050009069460948B2
:1025C000FFF73CFB08B172B6FEE7049404A9054886
:1025D0000594FFF767FA002801D072B6FEE706B04F
:1025E00010BD000044010020FEE7FEE77047704781
:1025F000FEF7F0BE30B593B030216846FDF7BDFE62
:1026000014210CA8FDF7B9FE1D480024016841F013
:1026100080510160006800F08050119019480168F5
:1026200021F4404141F4804101600068022500F43A
:1026300040401190012003901020049000950695D1
:102640000820CDE907404820CDE9090504200B907A
:102650006846FFF733F808B172B6FEE70F20CDE900
:102660000C054FF48050CDE90E4002210CA81094C7
:10267000FEF74AFF002801D072B6FEE713B030BD66
:1026800040380240007000400248016841F4700187
:102690000160704788ED00E0F0B50268254C264DDA
:1026A000264E274F274B4FF0804CA04209D0604563
:1026B00007D0A84205D0B04203D0B84201D098421A
:1026C00004D122F0700E4A6842EA0E02A0421BD0EA
:1026D000604519D0A84217D0B04215D0B84213D0E7
:1026E000984211D0184DA8420ED0184DA8420BD0D8
:1026F000174DA84208D0174DA84205D0164DA84244
:1027000002D0164DA84203D122F44075CA682A436C
:102710004D6922F080022A4302608A68C2620A6818
:102720008262A04201D0984201D10969016301216E
:102730004161F0BD0000014000040040000800407D
:10274000000C0040000401400040014000440140F2
:102750000048014000180040001C004000200040DC
:1027600010B501F01F030121046A99408C430462F3
:10277000016A9A401143016210BD10B5846842EAB3
:10278000032224F47F440A432243826010BD8268FE
:1027900022F070020A4342F0070181607047000096
:1027A000F0B5026A22F001020262036A426884699B
:1027B000124E24F073050C682C4323F002058B683D
:1027C0002B430D4DA84201D0B04205D123F008079C
:1027D000CB683B4323F00403A84201D0B04205D1AB
:1027E0004D6922F4407215438A692A43426084612C
:1027F000496841630362F0BD0000014000040140EC
:10280000F0B5026A22F010020262026A436884692B
:102810000D6824F4E64444EA05248D6822F0200281
:1028200042EA05120F4D104EA84201D0B04206D127
:10283000CF6822F0800242EA071222F04002A8424A
:1028400001D0B04207D14D6923F4406343EA8503C8
:102850008D6943EA8503436084614968816302624C
:10286000F0BD00000000014000040140F0B5026A24
:1028700022F480720262026A4368C46922F4007220
:1028800024F073050C68124E2C438D6842EA052231
:102890000E4DA84201D0B04206D1CF6822F40062AA
:1028A00042EA072222F48062A84201D0B04207D156
:1028B0004D6923F4405343EA05138D6943EA051338
:1028C0004360C4614968C1630262F0BD0000014019
:1028D0000004014030B5026A22F480520262046AA8
:1028E0004268C3690D6823F4E64343EA05238D6813
:1028F00024F4005444EA0534084DA84202D0084D9F
:10290000A84204D14D6922F4804242EA8512426015
:10291000C36149680164046230BD000000000140E9
:102920000004014010B5036A046A24F00104046243
:10293000846924F0F00444EA021423F00A020A43F2
:102940008461026210BD10B5036A23F010030362B4
:102950008369046A23F4704343EA023224F0A0033B
:1029600043EA01118261016210BDFEE70907090E09
:10297000002804DB00F1E02080F80014704700F02C
:102980000F0000F1E02080F8141D70472DE9F0479A
:102990000021084600F0AAF832A000F0F3F8DFF8B2
:1029A000DC904FF4005631464846FEF733FB344F77
:1029B000012807D1388860F30F0500F08BF831A0AB
:1029C00000F0E0F831A000F0DDF8B04631464E46A8
:1029D0004846FEF71FFB012807D1388860F31F45E2
:1029E00000F078F827A000F0CDF82EA000F0CAF88B
:1029F000414637463046FEF70DFB214E361F012873
:102A000007D1308860F30F0400F064F81DA000F0D7
:102A1000B9F82AA000F0B6F841463846FEF7FAFAAF
:102A2000012807D1308860F31F4400F053F815A047
:102A300000F0A8F8A9B2C1EB154000EBD07042102D
:102A400023486421230C026091FBF2F291FBF2F126
:102A5000A4B21B1B03EBD3735B10C0E90123C1605D
:102A6000BDE8F087507574207269676874207374CC
:102A700069636B20617420746F7000000004024071
:102A800004000020476F6F64000000005075742040
:102A9000726967687420737469636B20646F776E02
:102AA00000000000507574206C65667420737469B2
:102AB000636B20617420746F700000005075742087
:102AC0006C65667420737469636B20646F776E0045
:102AD0008C01002010B5802000F014F80024202084
:102AE00000F030F8641C462CF9DB10BD10B1012851
:102AF00005D102E041F0800101E041F0C001C8B21F
:102B0000AFF300801CB500F0F00141F00C028DF82D
:102B1000042041F0080100018DF8051040F00C017F
:102B20008DF8061040F008008DF807006420009032
:102B3000042301AA4E210248FEF780FB1CBD0000C1
:102B4000A80000201CB500F0F00141F00D028DF846
:102B5000042041F0090100018DF8051040F00D013D
:102B60008DF8061040F009008DF8070064200090F1
:102B7000042301AA4E210248FEF760FB1CBD0000A1
:102B8000A800002010B5044602E0641CFFF7DAFF3D
:102B900020780028F9D110BD2DED048B002182B0E2
:102BA0000846FFF7A3FF4FA0FFF7ECFF4FF4FA60D2
:102BB000FEF704F9FEF716FCFFF71CFDFFF766FBB6
:102BC0004A48016841F4800101600068002200F475
:102BD0008000009011463820FEF764FC3820FEF794
:102BE00053FC002211463A20FEF75CFC3A20FEF727
:102BF0004BFCFFF7E5FAFFF715FBFFF75DFCFFF76E
:102C0000C1FCFFF72DFC3A48FEF7DCFF02223949F0
:102C10003948FDF7B7FE374937480222091D4830C9
:102C2000FDF7B0FE324800214838FFF733F9FFF7CF
:102C3000ADFE304D2E4E2D1D2C1F9FED308B9FED88
:102C4000319B483E4FF4E16806272088404510D864
:102C500000F0D3FA53EC182B00F0E2FA53EC192BE6
:102C600000F0F6F900F09CFA81B2032000F060F861
:102C700030E040F6C411884216D300F0BEFA53EC9F
:102C8000182B00F0CDFA9FED211B53EC112B00F017
:102C9000C5FB53EC192B00F0DBF900F081FA81B28F
:102CA000032000F00DF915E0DFF8689000222021E4
:102CB0004846FEF7B4F9002210214846FEF7AFF966
:102CC000002208214846FEF7AAF9002204214846BE
:102CD000FEF7A5F928883168B0FBF7F000F57A70A7
:102CE0004863B2E766666673000000003038024051
:102CF0004401002000000020180000209A999999B2
:102D00009999E93F0000000000408F40000000005A
:102D10000000B04000100240044900220B685A62D3
:102D200009684A6A8242FCD37047000044010020CF
:102D30002DE9F0410E4605460024B9E05F4F01221F
:102D400020213846FEF76BF9002210213846FEF7A5
:102D500066F9002208213846FEF761F900220421B5
:102D60003846FEF75CF93046FFF7D6FF01222021F6
:102D70003846FEF754F9012210213846FEF74FF984
:102D8000002208213846FEF74AF90022042138467D
:102D9000FEF745F93046FFF7BFFF002220213846F5
:102DA000FEF73DF9012210213846FEF738F90022DE
:102DB00008213846FEF733F9002204213846FEF791
:102DC0002EF93046FFF7A8FF002220213846FEF7F3
:102DD00026F9012210213846FEF721F901220821A7
:102DE0003846FEF71CF9002204213846FEF717F991
:102DF0003046FFF791FF002220213846FEF70FF9F9
:102E0000002210213846FEF70AF90122082138462F
:102E1000FEF705F9002204213846FEF700F9304696
:102E2000FFF77AFF002220213846FEF7F8F800224B
:102E300010213846FEF7F3F8012208213846FEF744
:102E4000EEF8012204213846FEF7E9F83046FFF794
:102E500063FF002220213846FEF7E1F8002210210E
:102E60003846FEF7DCF8002208213846FEF7D7F88E
:102E7000012204213846FEF7D2F83046FFF74CFF16
:102E8000012220213846FEF7CAF8002210213846D8
:102E9000FEF7C5F8002208213846FEF7C0F80122E7
:102EA00004213846FEF7BBF83046FFF735FF641CB7
:102EB000AC42FFF643AFBDE8F081000000100240D5
:102EC0002DE9F0410E4605460024B9E05F4F01228E
:102ED00020213846FEF7A3F8002210213846FEF7DD
:102EE0009EF8002208213846FEF799F801220421B5
:102EF0003846FEF794F83046FFF70EFF00222021F7
:102F00003846FEF78CF8002210213846FEF787F885
:102F1000002208213846FEF782F8012204213846B3
:102F2000FEF77DF83046FFF7F7FE002220213846F5
:102F3000FEF775F8002210213846FEF770F80122DE
:102F400008213846FEF76BF8012204213846FEF7C7
:102F500066F83046FFF7E0FE002220213846FEF7F3
:102F60005EF8002210213846FEF759F801220821A8
:102F70003846FEF754F8002204213846FEF74FF891
:102F80003046FFF7C9FE002220213846FEF747F8F9
:102F9000012210213846FEF742F801220821384666
:102FA000FEF73DF8002204213846FEF738F8304697
:102FB000FFF7B2FE002220213846FEF730F801224A
:102FC00010213846FEF72BF8002208213846FEF77C
:102FD00026F8002204213846FEF721F83046FFF794
:102FE0009BFE012220213846FEF719F8012210210C
:102FF0003846FEF714F8002208213846FEF70FF88D
:10300000002204213846FEF70AF83046FFF784FE16
:10301000012220213846FEF702F80022102138460E
:10302000FDF7FDFF002208213846FDF7F8FF0022DA
:1030300004213846FDF7F3FF3046FFF76DFE641CB0
:10304000AC42FFF643AFBDE8F08100000010024043
:1030500010B591EA030F48BF83F0004300F1F281FD
:10306000841A71EB030C05D2121943EB0C03001BFD
:1030700061EB0C01DFF824E14FEA1154A4EB135C7F
:103080001EEA430F18BF9EEA445F73D023EA0E0383
:10309000DCF1200E21EA045143F4801332D322FAEA
:1030A0000CFE10EB0E0023FA0CFE41EB0E01CCF1EE
:1030B000200E03FA0EFE10EB0E0051F10001B1F5E7
:1030C000801FCCF1200E32D201EB045112FA0EF225
:1030D000BDE8104058BF7047401C38BF5FEA42024D
:1030E00018BF7047002814BF20F0010041F1000113
:1030F0004FEA410313F5001F38BF7047A1F1C041EB
:1031000000F086B9012A43EB0302ACF1200CDCF19C
:103110001F0E32BF4FF0000E23FA0CF310EB03002A
:1031200041EB0451B4EB115FD0D0A1EB045101F598
:10313000801149085FEA300001EB04510ED350F1D1
:10314000000038BF12FA0EFE08D1BDE81040C9E7F2
:10315000401C38BF5FEA4202CAD1C3E7BDE8104055
:103160004FEA410313F5001F38BF7047A1F1C0417A
:1031700000F04EB99EEA445F08D011EA5E0FBDE848
:10318000104004BF01F0004100207047BDE810402E
:1031900070B500F0EFF800BF64FBBE3E0000E0FF3A
:1031A0004FEA1153A3F58063D3F11E03A8BFD3F1F7
:1031B000200C08DB4FF0004242EAC12252EA505292
:1031C00032FA03F0704709420BD4102BC4BF002021
:1031D000704703F5787CBCF1FF3F05D04FF0FF301E
:1031E00070474FF00000704770B500F0C3F800BFA3
:1031F0004992248000207047F0E7B0FA80F310FA7B
:1032000003F10AD0C3F11D0303F580634FEA415077
:103210004FEA035202EBD12170474FF00000704794
:10322000DFF848C170B51CEA111E1EBF1CEA131559
:103230009EEA0C0F95EA0C0F00F06F8081EA030400
:1032400023EA4C134EEAD47E21EA4C1141F480115A
:1032500043F48013AE44A1FB024CA0FB0365AEF126
:103260007F7E361955EB0C05A1FB034C4CF1000396
:10327000A0FB021C16EB0C06654153F1000309424A
:1032800018BF46F0010613F4007F0BD14FEA03315B
:103290004FEA0530340341EA155140EA16506FF009
:1032A00003020AE04FEAC3214FEAC520F40241EAD3
:1032B000555140EA56506FF0020202EB2E4201EBEC
:1032C000025585EACE710AD05FEA440C18BF24F09B
:1032D000004450F1000041F1000120EAD47040F2B6
:1032E000FE7C624500D270BDA84214BF4FF08044FE
:1032F0004FF04044002E08BF0024BEF1806FA8BFED
:10330000A1F1C041BDE8704080F282804FF0000022
:1033100001F1C04101F0004170479EEA0C0F0CEA38
:10332000131518BF95EA0C0F06D04FF0000081EA84
:10333000030E0EF0004170BD00F01CF88900013E44
:1033400000F007B800F009B84FEA430C5FEA5C5C94
:1033500008D081EA030100F05BB84FEA410C5FEA54
:103360005C5CF6D14FF00000014970470000FF0798
:103370000000F87F0EF1020E2EF0030E5EF8046BD3
:10338000364205D4012A43EB030515F5001F12D878
:10339000012841EB010C1CF5001F0CD80ED14FEA9F
:1033A000D17C15F5001F0CEB4C0C0CF1020C08BF86
:1033B0004CEBD37C04E04FF0080C01E04FEAD37CE7
:1033C0000CEB4C0526FA05F606F00706B6F1040CE0
:1033D00006D20EEB860CBDE870404CF0010C604745
:1033E000DFE80CF0090B02024FF000414FF0000043
:1033F000A1F5002170BD19461046012851EB0104CA
:1034000018BFD4F5001484BF002001F0004170BD46
:103410000808A0F500114FEA3101704791EA030F47
:1034200010B581F000413FF51BAE83F0004300F082
:1034300009B8000010B591EA030F48BF83F00043BC
:103440003FF50EAE841A71EB030C07D212198CF003
:10345000004C43EB0C03001B61EB0C01DFF8A4E113
:103460004FEA1154A4EB135C1EEA430F18BF9EEA07
:10347000445F00F0B08023EA6E03524221EA045117
:10348000C3EB6E0338BF5B1EDCF1200E25D322FA9E
:103490000CFE10EB0E0043FA0CFE41EB0E01CCF1DA
:1034A000200E03FA0EFE10EB0E0051F10001CCF1DC
:1034B000200E29D412FA0EF201EB0451BDE810409F
:1034C00058BF7047401C1CBFB2F1004F7047002826
:1034D0000CBF491C20F00100704712EB020E43EBB9
:1034E000030218BF4FF0010E4EEA4202ACF1200C6D
:1034F000DCF11E0E54D943FA0CFE10EB0E0051F114
:10350000FF31CCF11E0ED5D50EF1010E12FA0EFED2
:10351000404141EB010101EB445C5FEA5C5C10D986
:1035200010EBDE7001EB045138BFBEF1004FBDE877
:10353000104018BF704700280CBF491C20F0010044
:10354000704730D24FEAD42C11F5001124F40064F6
:103550001BD0B1FA81F20B3AA41AA41ED2F12003B7
:10356000914030FA03F31943904001EBCC71002CE9
:1035700001EB0451BDE81040A8BF704701F1C04104
:103580004FF0000001F000417047B0FA80F310FAEC
:1035900003F100D110BDE41A173C4805C90AE4E75D
:1035A00001EB045110BD491001EB0451BDE810407E
:1035B0004FEA300002E04FF0000170474A0008BFB8
:1035C0000042F8D0B2F5001F28BF704701F000415B
:1035D0004FF0000070479EEA445F07D011EA5E0F8B
:1035E000BDE8104004BF002100207047BDE8104036
:1035F00070B5FFF7BFFE00BF40DFF63E83F000412D
:10360000104670470000E0FF4FF04070E1EE100AF6
:10361000704700061016000610160000000000009B
:10362000000001020304060708090000000001026F
:1036300003040000543600080000002018000000B9
:10364000E80100086C36000818000020A8080000F7
:10365000040200080000000000000000010000005B
:0C36600010000000000000000024F40036
:04000005080001AD41
:00000001FF
